:020000040800F2
:10000000B00C002005010008810E0008550E000804
:100010007D0E000815060008590F000800000000BA
:10002000000000000000000000000000B10E000809
:100030001906000800000000850E0008B30E000835
:100040001F0100081F0100081F0100081F01000810
:100050001F0100081F0100081F0100081F01000800
:100060001F0100081F0100081F0100081F010008F0
:100070001F0100081F0100081F0100081F010008E0
:100080001F0100081F0100081F0100081F010008D0
:100090001F0100081F0100081F0100081F010008C0
:1000A0001F0100081F0100081F0100081F010008B0
:1000B0001F0100081F0100081F0100081F010008A0
:1000C0001F0100081F0100081F0100081F01000890
:1000D0001F0100080D0F00081F0100081F01000884
:1000E0001F0100081F0100081F010008DFF810D0E1
:1000F00000F046F80048004769230008AFF300808D
:10010000B00C00200648804706480047FEE7FEE79F
:10011000FEE7FEE7FEE7FEE7FEE7FEE7FEE7FEE7B7
:100120000B0F0008ED00000840EA01039B0703D015
:1001300009E008C9121F08C0042AFAD203E011F826
:10014000013B00F8013B521EF9D27047D2B201E0E8
:1001500000F8012B491EFBD270470022F6E710B5CC
:1001600013460A4604461946FFF7F0FF204610BD25
:10017000421C10F8011B0029FBD1801A70470000B7
:10018000064C074D06E0E06840F0010394E80700E4
:1001900098471034AC42F6D3FFF7ACFFF4320008B6
:1001A0001433000810B590B0282106A8FFF7D5FF3A
:1001B000142101A8FFF7D1FF00BF2148C06940F01A
:1001C00080501F49C8610846C06900F08050009007
:1001D00000BF00BF012006900004079002200D9090
:1001E000C1030E914FF4E0110F9106A800F0E6FB59
:1001F000044684B1022006900020079001200A9056
:1002000000210E914FF460110F9106A800F0D6FB6B
:1002100008B100F003FA0F200190022002900020A4
:1002200003904FF48060049000200590022101A803
:1002300000F0C6FA08B100F0F1F910B010BD0000EE
:100240000010024010B501F03BFD01F07FFE4FF4BD
:10025000E13002F0EDFB02F08BFA1AA002F07EFC16
:1002600027A002F07BFC354800683549B0FBF1F46B
:10027000214634A002F072FC41A002F06FFC4FA0B6
:1002800002F06CFC5CA002F069FC6AA002F066FC63
:1002900077A002F063FC85A002F060FC92A002F05F
:1002A0005DFCA0A002F05AFC44A002F057FCACA0F8
:1002B00002F054FCB9A002F051FCC7A002F04EFCC1
:1002C00010BD00000D0A3D3D3D3D3D3D3D3D3D3DE8
:1002D0003D3D3D3D3D3D3D3D3D3D3D3D3D3D3D3D4E
:1002E0003D3D3D3D3D3D3D3D3D3D3D3D3D3D3D3D3E
:1002F0003D3D3D3D3D3D3D3D3D3D3D3D3D0D0A00CE
:10030000202020416E744D696E6572205049433142
:10031000364631373034204943535020466C6173A0
:1003200068657220546F6F6C202853544D333246E9
:10033000313033292020200D0A0000001400002055
:1003400040420F002020204669726D776172653A45
:100350002076322E302E30205354207C2053797357
:10036000436C6B3A20256C75204D487A207C2042E6
:100370006175643A203131353230300D0A000000A9
:100380002020205553415254313A205041392054B5
:1003900058202F205041313020525820202020203A
:1003A000202020202020202020202020202020204D
:1003B000202020202020200D0A0000002D2D2D2D92
:1003C0002D2D2D2D2D2D2D2D2D2D2D2D2D2D2D2D5D
:1003D0002D2D2D2D2D2D2D2D2D2D2D2D2D2D2D2D4D
:1003E0002D2D2D2D2D2D2D2D2D2D2D2D2D2D2D2D3D
:1003F0002D2D2D0D0A000000202020576972696EF6
:100400006720746F207461726765742050494331AE
:10041000364631373034202831342D70696E293A10
:100420002020202020202020202020202020200DDF
:100430000A0000002020202020504130202D3E20A6
:1004400050696E203420205241332F4D434C522F9F
:100450005650502020202020202020202020202006
:1004600020202020202020202020200D0A00000015
:100470002020202020504131202D3E2050696E2028
:100480003130205242372F494353504441542020A9
:10049000202020202020202020202020202020205C
:1004A000202020202020200D0A00000020202020D5
:1004B00020504132202D3E2050696E203131205293
:1004C00042362F49435350434C4B202020202020BC
:1004D000202020202020202020202020202020201C
:1004E0002020200D0A000000202020202050413331
:1004F000202D3E205644445F454E20286F7074697D
:100500006F6E616C2074617267657420706F7765BF
:100510007220636F6E74726F6C2920202020200D72
:100520000A0000002020202020335633202D3E20BA
:1005300050696E203120205644442020202020473E
:100540004E44202D3E2050696E20313420565353A6
:1005500020202020202020202020200D0A00000024
:100560002020204F66666C696E653A207072657354
:100570007320504239206B657920746F2062757248
:100580006E20656D626564646564206669726D776E
:10059000617265202020200D0A0000002020204FDD
:1005A0006E6C696E653A202073656E64202748453D
:1005B0004C5027206F722075736520686F73745FCD
:1005C000746F6F6C2F2A2E7079202020202020201D
:1005D0002020200D0A0000003D3D3D3D3D3D3D3DBC
:1005E0003D3D3D3D3D3D3D3D3D3D3D3D3D3D3D3D3B
:1005F0003D3D3D3D3D3D3D3D3D3D3D3D3D3D3D3D2B
:100600003D3D3D3D3D3D3D3D3D3D3D3D3D3D3D0D4A
:100610000A0D0A0000BFFEE77047000072B64FF4F3
:1006200000500249086100BFFEE7000000100140D1
:100630000148006870470000180000200348006867
:1006400003490978084401490860704718000020F0
:100650002000002010B50848006840F0100006494E
:100660000860032000F098F80F2000F007F800F071
:100670002BF8002010BD00000020024070B5044699
:100680000E4800784FF47A71B1FBF0F00C4909681C
:10069000B1FBF0F5284600F0C3FB08B1012070BDA6
:1006A000102C07D200222146501E00F037F80548D2
:1006B000046001E00120F2E70020F0E720000020C4
:1006C000140000201C00002008B500BF11488069FC
:1006D00040F001000F4988610846806900F0010080
:1006E000009000BF00BF00BF0846C06940F08050C6
:1006F000C8610846C06900F08050009000BF00BF8C
:1007000000BF0549486820F0E06040F08060486024
:1007100000BF08BD00100240000001402DE9F05F5D
:1007200080460D461646002700F018FC074639465D
:100730002A46334601F00700C0F1070ABAF1040F58
:1007400002D94FF0040A01E0C0F1070AD14600F1D6
:10075000040ABAF1070F02D24FF0000A01E0A0F13B
:10076000030AD4464FF0010A0AFA09FAAAF1010A6B
:100770000AEA020A0AFA0CFA4FF0010B0BFA0CFB18
:10078000ABF1010B0BEA030B4AEA0B04214640468E
:1007900000F0ECFBBDE8F09F00BF00F00702064B45
:1007A00019684FF6FF031940044B0B4343EA02213B
:1007B000014B196000BF70470CED00E00000FA0526
:1007C00070B504460D460CB9012070BD5A4800684A
:1007D00000F00700A8420ED25748006820F007003A
:1007E0002843554908600846006800F00700A84201
:1007F00001D00120E9E7207800F0020002281DD195
:10080000207800F00400042805D14C48406840F4EA
:10081000E0604A494860207800F00800082805D1C7
:100820004648406840F46050444948604348406846
:1008300020F0F000A168084340494860207800F0AB
:10084000010078B36068012806D13C48006800F4D4
:10085000003090B90120B8E76068022806D1374817
:10086000006800F0007040B90120AEE7334800682E
:1008700000F0020008B90120A7E73048406820F0E6
:100880000300616808432D494860FFF7D1FE064622
:1008900009E0FFF7CDFE801B41F28831884202D982
:1008A000032092E707E02548406800F00C006168EB
:1008B000B0EB810FEDD12048006800F00700A8429E
:1008C0000ED91D48006820F0070028431A49086027
:1008D0000846006800F00700A84201D0012074E734
:1008E000207800F00400042807D11448406820F460
:1008F000E060E168084311494860207800F0080092
:10090000082808D10D48406820F46050216940EA69
:10091000C1000A49486000F019F808494968C1F364
:100920000311074A515CC840064908600648006840
:10093000FFF7A4FE002048E700200240001002401C
:100940008C310008140000201C00002070B500212C
:100950000022002400230020134D696801F00C05DB
:10096000F5B1042D02D0082D19D101E00F4819E08E
:100970000F4DC1F38346AB5D01F4803555B10A4D8F
:100980006D68C5F340450B4E725D084D5D43B5FB88
:10099000F2F402E0084D03FB05F4204602E000BF3C
:1009A000024800BF00BF70BD0010024000127A0074
:1009B000A4310008B431000800093D00F8B5044630
:1009C0000CB90120F8BD207800F00100002878D093
:1009D000F848406800F00C0004280CD0F548406846
:1009E00000F00C00082811D1F248406800F4803073
:1009F000B0F5803F0AD1EF48006800F400300028CD
:100A00005FD0606800285CD10120DBE700BF606830
:100A1000B0F5803F06D1E748006840F48030E549F2
:100A2000086028E0606858B9E248006820F4803027
:100A3000E04908600846006820F4802008601AE059
:100A40006068B0F5A02F0BD1DA48006840F4802030
:100A5000D84908600846006840F4803008600AE021
:100A6000D448006820F48030D24908600846006805
:100A700020F48020086000BF606888B1FFF7D8FDCF
:100A8000054606E0FFF7D4FD401B642801D903208A
:100A900098E7C848006800F400300028F2D010E061
:100AA000FFF7C6FD054606E0FFF7C2FD401B6428C0
:100AB00001D9032086E7BF48006800F40030002811
:100AC000F2D1207800F00200022857D1B9484068DE
:100AD00000F00C0050B1B748406800F00C00082846
:100AE00018D1B448406800F4803098B9B148006823
:100AF00000F0020020B12069012801D0012061E747
:100B0000AC48006820F0F800616940EAC100A949DA
:100B1000086033E02069E8B10120A7490860FFF7C9
:100B200087FD054606E0FFF783FD401B022801D93B
:100B3000032047E79F48006800F002000028F2D039
:100B40009C48006820F0F800616940EAC1009949BA
:100B5000086013E0002098490860FFF769FD05462A
:100B600006E0FFF765FD401B022801D9032029E7B5
:100B70009048006800F002000028F2D1207800F0D0
:100B8000080008282DD1A069B8B101208B49086060
:100B9000FFF74EFD054606E0FFF74AFD401B022821
:100BA00001D903200EE78348406A00F002000028C4
:100BB000F2D0012000F068F913E000207F490860BE
:100BC000FFF736FD054606E0FFF732FD401B022821
:100BD00001D90320F6E67748406A00F002000028B9
:100BE000F2D1207800F00400042873D10027714866
:100BF000C06900F0805070B900BF6E48C06940F015
:100C000080506C49C8610846C06900F0805000906F
:100C100000BF00BF01276A48006800F48070B0B9C7
:100C20006748006840F4807065490860FFF700FD80
:100C3000054606E0FFF7FCFC401B642801D90320B1
:100C4000C0E65F48006800F480700028F2D000BF62
:100C5000E068012806D15748006A40F00100554974
:100C6000086227E0E06858B95248006A20F00100A5
:100C7000504908620846006A20F00400086219E042
:100C8000E06805280BD14B48006A40F00400494950
:100C900008620846006A40F0010008620AE0454820
:100CA000006A20F00100434908620846006A20F00B
:100CB0000400086200BFE068A0B1FFF7B9FC054678
:100CC00009E0FFF7B5FC401B41F28831884202D9A8
:100CD000032077E622E03748006A00F0020000288F
:100CE000EFD012E0FFF7A4FC054608E0FFF7A0FCF8
:100CF000401B41F28831884201D9032062E62D4829
:100D0000006A00F002000028F0D1012F05D1294827
:100D1000C06920F080502749C86100BFE069C8B3AE
:100D20002448406800F00C00082860D0E0690228E0
:100D300048D1002020490866FFF77AFC054606E006
:100D4000FFF776FC401B022801D903203AE6194838
:100D5000006800F000700028F2D1206AB0F5803FF2
:100D600007D11448406820F40030A16808431149B5
:100D70004860D4E9080108430E49496821F4741118
:100D800008430C49486001200B490866FFF750FCF6
:100D9000054607E03DE0FFF74BFC401B022801D968
:100DA00003200FE60348006800F000700028F2D02E
:100DB0002FE0000000100240000042428004424246
:100DC00000700040002014490866FFF731FC05461A
:100DD00006E0FFF72DFC401B022801D90320F1E5B6
:100DE0000E48006800F000700028F2D111E0E069C0
:100DF000012800D1E6E50948466806F48031206AFA
:100E0000814204D106F47011606A814201D0012050
:100E1000D8E50020D6E50000000042420010024064
:100E200070B504462546681EB0F1807F01D30120CD
:100E30000FE0681E4FF0E02148610F214FF0FF30B6
:100E400000F094F800204FF0E0218861072008614D
:100E5000002070BD00BFFEE708B500BF06488069EE
:100E600040F02000044988610846806900F02000B5
:100E7000009000BF00BF08BD0010024000BFFEE7A9
:100E800000BFFEE77047000008B508490968C908B7
:100E90004FF47A72B1FBF2F14143009100BF00BF01
:100EA00000994A1E00920029F9D108BD14000020C3
:100EB000704710B5FFF7C2FB10BD00B58FB02821F9
:100EC00005A8FFF74AF914216846FFF746F9022002
:100ED00005900120099010200A9000200C9005A890
:100EE000FFF76CFD08B1FFF799FB0F200090002081
:100EF000019002900390049000216846FFF760FC87
:100F000008B1FFF78BFB0FB000BD704710B50E495D
:100F1000086800F02801B1B10B49091D0968CAB27F
:100F200000F0200171B1094B1B885B1CD9B2084B42
:100F30001B88994205D0074B044C24881A55034B53
:100F4000198000BF00BF10BD00380140080000201C
:100F50000A0000202400002000BFFEE702480068CD
:100F6000C0F30220704700000CED00E010B500282F
:100F700004DB0A07130E054A135406E00A07140E91
:100F8000034A00F00F031B1FD45410BD00E400E01F
:100F900018ED00E002E008C8121F08C1002AFAD1CB
:100FA00070477047002001E001C1121F002AFBD1E9
:100FB000704710B5024616E014780B78612C04DBFC
:100FC0007A2C02DCA4F12000C4B2612B04DB7A2B62
:100FD00002DCA3F12000C3B29C4201D0002010BD6E
:100FE000521C491C00BF107810B108780028E3D1CA
:100FF000107818B9087808B90120F0E70020EEE76A
:1010000010B50446204601F08DFD10BD2DE9FE43CC
:1010100005460E4690461F46DDF82890002400BF86
:10102000B5FBF6F106FB11500A2802D200F130019F
:1010300008E0B8F1000F01D0412200E06122A0F1E8
:101040000A011144CBB22146621CD4B20DF8013022
:10105000B5FBF6F5002DE3D104E04846FFF7D0FFDD
:10106000781EC7B2BC4201DA0B2CF6D305E0601E35
:10107000C4B21DF80400FFF7C3FF002CF7D1BDE890
:10108000FE8300002DE9F04786B004460D46002798
:10109000B846A0780A2878D2DFE800F0B4050B1C27
:1010A000244A7D95A6AB04275D485EA109680160CE
:1010B000ABE001A800F04AFE064646B914273A46BE
:1010C00001A95748FFF730F84FF0000801E04FF052
:1010D00001089AE000F052FD0646304601F07FF824
:1010E000804692E0E088C0F347060EB1202E02DD74
:1010F0004FF005081BE000200CE015F8101001224D
:1011000002EB4002AA5C41EA0221484A22F8101090
:10111000411CC8B2B042F0DBA0883246434901F01E
:10112000D9F88146484601F05AF8804600BF6CE085
:10113000E688802E00D9802616B94FF0050864E0B5
:10114000A0883246394900F0DAFF8146B9F1000F34
:101150001CD1002010E0354911F81010304A02F877
:101160001010324931F81010090A012202EB400236
:101170002B4B9954411C88B2B042ECDB4FF6FF7008
:1011800000EA46074FF0000804E03BE0484601F063
:1011900026F8804639E0E088042811D32878697859
:1011A00040EA0126A878E97840EA01294946304614
:1011B00001F067F88246504601F011F8804601E0E0
:1011C0004FF0050821E001A800F052FF064646B99D
:1011D00014273A4601A91248FEF7A6FF4FF000086F
:1011E00001E04FF0010810E000F09EFE4FF0000813
:1011F0000BE000F0D5FC06460EB9002000E003200D
:10120000804602E04FF0FF0800BF00BF0097E17882
:10121000A078034B424601F0ADFB06B0BDE8F08775
:101220002E020020504F4E47000000002E030020E9
:101230002DE9F041A2B005462846FEF799FF064683
:1012400003E00021701E06462954002E0BDD701E9F
:10125000285C0D28F5D0701E285C0A28F1D0701E7D
:10126000285C2028EDD016B922B0BDE8F081D5A1C8
:101270002846FFF79EFE18B1D4A001F06FFC9CE356
:10128000D4A12846FFF795FE20B9D4A12846FFF740
:1012900090FE68B11DA800F059FD04461CB91DA8B8
:1012A00001F06AF903E02146CD4801F057FC84E3E0
:1012B000CCA12846FFF77DFE00280FD0CBA001F07F
:1012C0004DFC00F05BFC04461CB9D4A001F046FCC8
:1012D00003E02146DCA001F041FC6EE3E3A12846D7
:1012E00001F082FB00286AD06C1D00E0641C2078AD
:1012F0002028FBD0002021901020209021A92046FA
:1013000001F0F8F818B9DBA001F028FCACE700E028
:10131000641C207810B120782028F9D100E0641CEA
:1013200020782028FBD0207840B120A9204601F069
:10133000E1F818B9D6A001F011FC95E7BDF88000DE
:10134000402801D940202090BDF8800008B9012034
:101350002090BDF880206946BDF8840000F0CFFEE3
:1013600007463FBBBDF88020BDF88410CEA001F039
:10137000F5FB4FF0000810E03DF81810D2A001F086
:10138000EDFB08F1010000F0070010B990A001F09A
:10139000E5FB08F101001FFA80F8BDF880008045E8
:1013A000EADBBDF8800000F0070038B188A001F04A
:1013B000D5FB03E03946C6A001F0D0FBFDE2CDA18C
:1013C0002846FFF7F6FD00287ED01DA800F0BEFCE1
:1013D00018B1CAA001F0C2FB46E79DF8850010B124
:1013E000D64801F0BBFBD6A001F0B8FB002737E0E0
:1013F00020220DA9384600F082FE20B13946DCA03B
:1014000001F0ACFB2FE0002425E007EBC4004FF611
:10141000FF7101EA4008002013E000EBC4020DABAD
:1014200033F81220C2F30D0109AB03F810100A0AB9
:10143000012303EB40030DF1240C0CF80320411CA5
:10144000C8B20828E9DB09AB00224146102001F0B0
:1014500029F9601CC4B2042CD7DB07F1200087B245
:10146000B7F5805FC4DB00BFCAA001F077FB0020A6
:1014700011E01FA911F8101009AA02F810101FA9F5
:1014800031F81010C1F30521012202EB400209AB33
:101490009954411CC8B20428EBDB09AB0022114669
:1014A000082001F0FFF8BDF87800C0B28DF82400E4
:1014B000BDF87800C0F305208DF82500BDF87A004E
:1014C000C0B28DF8260000E014E0BDF87A00C0F349
:1014D00005208DF8270009AB00220E21042001F021
:1014E000E1F8B1A001F03AFBB3A001F037FB00F046
:1014F0001BFD62E2B8A12846FFF75BFD58B11DA8AD
:1015000000F0B6FD18B91DA801F036F802E0B3A04E
:1015100001F024FB51E2B9A12846FFF74AFD28B1AA
:1015200000F002FDB7A001F019FB46E2C1A1284678
:10153000FFF73FFD28B9C1A12846FFF73AFD002873
:1015400029D0C0A001F00AFB4FF40050CB494861FC
:1015500000F026FB04463CB9C9A001F0FFFA4FF4A5
:101560000050C649086115E02146D2A001F0F6FA04
:10157000002709E0C148C06880F40050BF49C86036
:10158000962000F0BFFB7F1C062FF3DB4FF40050CA
:10159000BA49086111E2D1A12846FFF70AFD28B92E
:1015A000D0A12846FFF705FD002809D0CEA001F004
:1015B000D5FAD9A001F0D2FAE2A001F0CFFADFE12A
:1015C000F7E1000050494E4700000000504F4E47E1
:1015D0000D0A0000444554454354000049440000AE
:1015E000AC3200084552415345000000457261731A
:1015F000696E6720504943313646313730342046D2
:101600006C617368202620436F6E666967206D6584
:101610006D6F72792E2E2E0D0A0000005B4F4B5D10
:101620002042756C6B20457261736520436F6D704D
:101630006C65746564205375636365737366756C5C
:101640006C79210D0A0000005B4552525D20427505
:101650006C6B204572617365204661696C6564211D
:1016600020436F64653D25640D0A000052454144E6
:10167000200000005B4552525D20496E76616C6926
:101680006420616464726573732E0D0A00000000AB
:101690005B4552525D20496E76616C696420636FD0
:1016A000756E742E0D0A00004164647265737320B8
:1016B0003078253034582028257520776F72647370
:1016C000293A0D0A0000000025303458200000009F
:1016D0005B4552525D205265616420466C617368BF
:1016E000204661696C65642120436F64653D256413
:1016F0000D0A000044554D50000000005B45525259
:101700005D20504943204E6F7420466F756E6420F3
:101710006F7220496E636F6D70617469626C6521D0
:1017200020436865636B20776972696E6720616E1C
:101730006420706F7765722E0D0A00000C3200086D
:101740003B203D3D3D20424547494E20494E5445B2
:101750004C204845582044554D502028504943318D
:1017600036463137303429203D3D3D0D0A0000001A
:101770005B4552525D205265616420466C6173681E
:10178000206661696C65642061742030782530348E
:10179000580D0A003A30323030303030343030308A
:1017A0003146390D0A0000003A30303030303030E8
:1017B0003146460D0A0000003B203D3D3D20454E90
:1017C0004420494E54454C204845582044554D50DE
:1017D000203D3D3D0D0A0000434647005B45525207
:1017E0005D205265616420436F6E666967732046B1
:1017F00061696C6564210D0A000000005245534583
:10180000540000005B4F4B5D2052656C6561736551
:1018100064204D434C522E205461726765742050F1
:1018200049432069732072756E6E696E672E0D0ACA
:10183000000000004F4E454B455900004255524EA6
:10184000000000005374617274696E67204F6E650A
:101850002D4B6579204F66666C696E652042757206
:101860006E206F6620656D626564646564206669DC
:10187000726D776172652E2E2E0D0A0000100140E8
:101880005B535543434553535D204669726D776101
:10189000726520466C617368656420262056657207
:1018A0006966696564203130302525204F4B210D54
:1018B0000A0000005B4641494C5D20466C6173683C
:1018C000696E67204661696C656421204572726F9C
:1018D0007220436F64653D25640D0A0048454C50F5
:1018E000000000003F0000000D0A3D3D3D20535424
:1018F0004D3332463130332050494331364631374B
:1019000030342050726F6772616D6D657220434C88
:1019100049203D3D3D0D0A00202050494E472020E2
:101920002020202020202020202020202D20546531
:1019300073742073657269616C206C696E6B0D0A3B
:101940000000000020204944202F204445544543F6
:1019500054202020202020202D205265616420501A
:101960004943313646313730342044657669636502
:10197000204944202620436F6E666967730D0A0074
:101980000FA001F0EBF81CA001F0E8F82A4801F0E4
:10199000E5F82AA001F0E2F837A001F0DFF845A051
:1019A00001F0DCF851A001F0D9F85AA001F0D6F806
:1019B00003E0294665A001F0D1F800BF54E400001F
:1019C0002020455241534520202020202020202047
:1019D000202020202D2042756C6B2065726173657C
:1019E0002050494320466C617368202620436F6E67
:1019F0006669670D0A000000202052454144203CE2
:101A0000616464723E205B6E5D2020202D20526553
:101A10006164206E20776F72647320286D61782076
:101A20003634292C20652E672E2052454144203023
:101A30002031360D0A00000068320008202043469D
:101A4000472020202020202020202020202020206F
:101A50002D205265616420436F6E666967757261FF
:101A600074696F6E20776F726473202620557365DA
:101A7000722049440D0A000020204F4E454B455925
:101A8000202F204255524E20202020202D20466C11
:101A900061736820656D626564646564206669725F
:101AA0006D776172652026207665726966790D0A08
:101AB00000000000202052455345542020202020C3
:101AC00020202020202020202D2052656C6561736D
:101AD00065204D434C5220616E64206C657420502B
:101AE00049432072756E0D0A000000002020484511
:101AF0004C5020202020202020202020202020208A
:101B00002D2053686F772074686973206D656E753A
:101B10000D0A00002020507974686F6E20686F7382
:101B20007420746F6F6C3A20686F73745F746F6F9A
:101B30006C2F7069633136665F666C6173686572BD
:101B40002E7079202D680D0A0D0A0000556E6B6EFF
:101B50006F776E20636F6D6D616E643A2027257319
:101B6000272E20547970652048454C5020666F72AE
:101B7000206D656E752E0D0A0000000000B500F0A6
:101B8000A9F900F0EFFA00F031FA092000F01CFB8F
:101B90000C2000F0B7F800F0C7F9002000BD0000ED
:101BA0002DE9F0418DB008A800F0D0F804461CB132
:101BB00020460DB0BDE8F081FFF7E0FF04460CB110
:101BC0002046F6E70A2000F09DF8102700251AE0CD
:101BD0004FF6FF7000EA45164FF0200806EB0800AC
:101BE000B0F5007F02DD704200F0FF08254800EBF1
:101BF00046014246304600F06DFB04460CB12046DB
:101C0000D7E7681C85B2BD42E2DB43F6847148F237
:101C1000070000F036FB04460CB12046C9E741F648
:101C2000134148F2080000F02CFB04460CB120469A
:101C3000BFE700200790069006A807AB4FF400729C
:101C400010490090002000F0DFFA04460CB1204655
:101C5000AFE701A800F00CFA04460CB12046A8E753
:101C6000BDF8080043F68471884205D1BDF80A002A
:101C700041F61341884201D005209AE700F054F95B
:101C8000002096E78C2D00080648006820F0F00040
:101C900040F08000034908600220024910310860CA
:101CA00070470000000801400448006820F0F00080
:101CB00040F0300001490860704700000008014012
:101CC0000B48006840F080700949086009480068C6
:101CD00040F001000749086000204860064800689D
:101CE00010B10548006800E00448054908607047E5
:101CF000FCED00E0001000E01400002000A24A0407
:101D00000400002010B5044603E04FF47A7000F0A0
:101D100005F8201EA4F10104F7D110BD10B5084B41
:101D20005968084B1B68084CB3FBF4F303FB00F243
:101D300000BF034B5B685B1A9342FAD310BD0000EF
:101D4000001000E00400002040420F0070B504467F
:101D50000CB9072070BD00F0BDF800F003FA00F0E8
:101D600045F9062000F036F900F0F5F90546258022
:101D700005F01F006080012000F02CF900F0EBF965
:101D8000A080012000F026F900F0E5F9E08000F0E5
:101D9000E9F900F02BF9002609E000F0DCF904F184
:101DA000080121F81600012000F014F9761C042E19
:101DB000F3DB00F0B9F8A088012121EAD0106074AB
:101DC000A07900F00100A074208843F6E07108407B
:101DD000B0F5415F03D1012020740020BAE7002054
:101DE000207443F6FF70854200D00DB90120B1E7A1
:101DF0000220AFE7014643F6E0700840B0F5415FCE
:101E00002AD143F25402881A91421FD00BDCA1F56B
:101E10004050A0F1420088B101280BD002280FD019
:101E2000032817D108E001280CD0022810D003287D
:101E300010D109E00AA070470CA0FCE70EA0FAE759
:101E400010A0F8E712A0F6E714A0F4E716A0F2E756
:101E500018A0F0E71AA0EEE700BF00BF1BA0EAE75A
:101E60005049433136463137303400005049433110
:101E7000364C4631373034005049433136463137DD
:101E80003038000050494331364C46313730380045
:101E900050494331364631373035000050494331DF
:101EA000364C4631373035005049433136463137AC
:101EB0003039000050494331364C46313730390013
:101EC000504943313646313730780000556E6B6EDD
:101ED0006F776E0000B50420124908600220086088
:101EE000FFF7E2FE01200F4908604FF4AF70FFF7E3
:101EF00015FF0821502000F03BF90821482000F090
:101F000037F90821432000F033F908214D2000F073
:101F10002FF90121002000F02BF90220FFF7FEFE2F
:101F2000002000BD1408014000B5042006490860E7
:101F300002200860FFF7B8FE01200349091F08606E
:101F40000F20FFF7DFFE00BD140801401D48806927
:101F500040F01C001B4988611B4800686FF30F00AC
:101F6000194908600846006843F2333108431649AE
:101F7000086001201449103108600420091D086020
:101F8000022008600820091F08601048406820F4FB
:101F900070000E4948600846406840F400104860F0
:101FA000481408610A48006820F0F00008490860F9
:101FB0000846006840F080000860481504490C316C
:101FC0000860704700100240000801400010014006
:101FD000040C014010B5044602E0062000F0F4F8BD
:101FE000201EA4F101018CB2F7D110BD00B5002074
:101FF00000F0EAF8002000F001F800BD30B504461A
:10200000A004450C1021284600F0B2F80220FFF78A
:1020100085FE30BD70B505460026FFF735FE012070
:10202000FFF77CFE002417E004201049086001201F
:10203000FFF774FE0D480838006800F0020010B188
:102040000120A040064304200849091D0860012022
:10205000FFF764FE601CC4B2AC42E5DBFFF724FE70
:1020600002200249091D0860304670BD1008014079
:1020700070B504460CB9072070BDFFF72BFF00F0C8
:1020800071F8FFF7B3FF002609E000F064F804F1EF
:10209000080121F816000120FFF79CFF761C042E92
:1020A000F3DB0220FFF796FF00F055F80546258088
:1020B00005F01F0060800120FFF78CFF00F04BF857
:1020C000A0800120FFF786FF00F045F8E080FFF7D1
:1020D0002BFFA088012121EAD0106074A07900F0C4
:1020E0000100A074208843F6E0710840B0F5415F1C
:1020F00001D1012000E0002020740020BCE7F0B5F1
:1021000004460D4616461DB1A019B0F5805F01D9F1
:102110000720F0BDFFF7DEFE00F024F814B12046E2
:10212000FFF758FF002708E000F015F825F8170022
:102130000120FFF74FFF781C87B2B742F4DBFFF7AF
:10214000F3FE0020E5E710B51020FFF763FF04461B
:10215000C4F34D0010BD00B5042000F035F8FFF7C2
:10216000F2FF00BD00B5162000F02EF800BD000003
:1021700070B504460D46FFF797FD00261AE004F0FF
:10218000010018B102200F49086003E002200D4948
:10219000091D08600120FFF7C1FD042009490860FE
:1021A0000120FFF7BBFD04200649091D08606408F3
:1021B000701CC6B2AE42E2DB02200249091D086073
:1021C00070BD00001008014010B5044604F03F0047
:1021D0000621FFF7CDFF0220FFF7A0FD10BD01464D
:1021E00006290FD2DFE801F0030506080A0C0020DB
:1021F000704700BF0120FBE70220F9E70320F7E763
:102200000420F5E70520F3E72DE9F04704460E46E4
:1022100017469846DDF820901EB1E019B0F5805FB2
:1022200002D90720BDE8F087FFF754FEFFF79AFFB9
:1022300014B12046FFF7CEFE00251CE0FFF78BFF10
:10224000824636F81500C0F30D0050450ED0B8F1A7
:10225000000F02D06019A8F80000B9F1000F01D0FA
:10226000A9F800A0FFF760FE0520DBE70120FFF7DB
:10227000B1FE681C85B2BD42E0DBFFF755FE0020D1
:10228000D0E730B504460D46B4F5004F03D348F20D
:102290000800844201D9072030BDFFF71BFEFFF77D
:1022A00061FF0020FFF790FFC5F30D00FFF7A6FECA
:1022B000B4F5004F04D9A4F5004188B2FFF78AFEB7
:1022C0000820FFF781FF0620FFF71CFDFFF72CFE1B
:1022D0000020E1E72DE9F04104460F46154617B10D
:1022E0000DB1202D02DD0720BDE8F081E11704EBE0
:1022F000D1614911A4EB411109B10720F4E760193C
:10230000B0F5805F01DD0720EEE7FFF7E3FDFFF7A3
:1023100029FF14B12046FFF75DFE002614E0AE420F
:1023200002DA37F8160001E043F6FF70804602201B
:10233000FFF74AFF4046FFF761FE1F2E02D206203C
:10234000FFF742FF701CC6B2202EE8DB0820FFF723
:102350003BFF0420FFF7D6FC0620FFF735FFFFF711
:10236000E3FD0020C0E70000FEF774F9FEF7A5FDCD
:10237000FEF772FDFDF716FFFDF764FF5AE000F06F
:1023800009FA2D48006800F40070002840D114209C
:10239000FFF7B8FC2848006800F40070002837D127
:1023A00026A000F0DBFB4FF4005032494861FFF7F4
:1023B000F7FB05465DB930A000F0D0FB40F2DC50E1
:1023C000FFF7A0FC4FF400502A49086115E02946A8
:1023D00038A000F0C3FB002609E02648C06880F45E
:1023E00000502449C8606420FFF78CFC761C0A2E3C
:1023F000F3DB4FF400501F49086102E00A20FFF7A9
:1024000081FC0D48006800F400700028F6D000BF81
:10241000FEF70EF9044636480068201AB0F57A7FB8
:1024200007D3334804601348C06880F40050114952
:10243000C86000BFA3E70000080C01400D0A5B4B19
:1024400045595D205374616E64616C6F6E65204FF9
:102450006E652D4B6579204F66666C696E6520420E
:1024600075726E20547269676765726564210D0A22
:1024700000000000001001405B5355434345535397
:102480005D2054617267657420504943313646318E
:1024900037303420466C61736865642026205665A9
:1024A000726966696564203130302525204F4B21E3
:1024B0000D0A00005B4641494C5D204275726E205A
:1024C0004661696C65642077697468204572726F33
:1024D0007220436F64652025642120436865636B27
:1024E00020636F6E6E656374696F6E732E0D0A00E4
:1024F00000000020F0B502460E46002400270A2501
:102500001078302807D15078782802D05078582891
:1025100001D11025921C24E01178302904DB3929DF
:1025200002DCA1F1300312E0102D06D1612904DB99
:10253000662902DCA1F1570309E0102D06D14129DB
:1025400004DB462902DCA1F1370300E00CE004FBC8
:102550000534B4F5803F01D30020F0BD7F1C521C30
:1025600000BF10780028D7D100BF0FB90020F4E7D2
:1025700034800120F1E7000038B504462088FFF7D9
:1025800039FC054663882288294612A000F0E6FA45
:10259000E288A1881DA000F0E1FAE0890090A389FB
:1025A0006289218923A000F0D9FAA07C08B12DA06E
:1025B00000E02DA00246607C08B12AA000E02AA01D
:1025C00001462AA000F0CAFAA07C10B9344800F0F5
:1025D000C5FA38BD5B4F4B5D2050494320446574BC
:1025E00065637465643A20257320287261772044FE
:1025F000657649443D307825303458205265763D23
:10260000307825303258290D0A0000002020202083
:1026100020434F4E464947313D3078253034582CC1
:1026200020434F4E464947323D3078253034580DCF
:102630000A00000020202020205573657249443D87
:102640005B3078253034582C203078253034582CA5
:10265000203078253034582C203078253034585D9F
:102660000D0A00004F4E00004F464600202020205B
:1026700020435028636F64652070726F74656374C3
:10268000293D25732C204C5650286C6F772D766F82
:102690006C742070726F67293D25730D0A0000006D
:1026A000B83100082DE9F04704460D4616461F468E
:1026B00004EB25202844304400F0FF08002005E00A
:1026C000395C414401F0FF08411CC8B2A042F7DB6D
:1026D000C8F1000000F0FF0833462A4621460BA04F
:1026E00000F03CFA4FF0000908E017F809100BA0C1
:1026F00000F034FA09F1010000F0FF09A145F4DB14
:10270000414608A000F02AFABDE8F0873A253032A9
:1027100058253034582530325800000025303258C2
:1027200000000000253032580D0A000010B50246A6
:102730004FF6FF7016E012F8014B80EA04200023E8
:102740000EE000F400442CB141F2210484EA40047C
:10275000A0B203E04FF6FF7404EA40005C1CE3B251
:10276000082BEED30B1EA1F10104A1B2E3D110BDE1
:10277000002004490880044908800449088004496D
:10278000088070470C0000200E0000201000002080
:10279000120000202DE9FC41D8E07048008828B1E3
:1027A0006E480088401E6D490880CFE06C48008864
:1027B00018B99DF80400AA287DD169480088B0F5B1
:1027C000857F0AD29DF80420654801880088401C56
:1027D000634B18806348425406E001205F4908803B
:1027E00000205F490880B1E05D480088012807D1DA
:1027F0005C480078AA286ED00020594908806AE019
:1028000057480088022811D156484078552862D090
:1028100054484078AA2805D15249087001205049EF
:10282000088058E000204E49088054E04C48008859
:10283000082813D14B488278052A01D1002200E0F4
:10284000C2881146B1F5807F03DD0022444B1A8017
:1028500003E001F10A02444B1A803CE04048008842
:10286000082837D93E4800883F490988884231D135
:102870003C4CA078052801D1002000E0E088074604
:1028800039480088801E3749095C37480088401E57
:10289000344A105C41EA002607F1080081B2104674
:1028A000FFF744FF0546AE4206D12E4908312046C7
:1028B000FEF7E8FB08E012E000200090E178A07845
:1028C0000023062200F056F80020254908802649FA
:1028D00008803BE000BF2248008800B136E09DF848
:1028E00004000D2803D09DF804000A280ED11F48CB
:1028F000008850B300201E491C4A1288885408469C
:10290000FEF796FC0020194908801EE09DF804009F
:10291000082803D09DF804007F2808D113480088B8
:1029200098B112480088401E104908800DE00F48F9
:1029300000887F2809D29DF804100C48028800887E
:10294000401C0A4B18800A48815400BF01A800F0BF
:10295000CDF800287FF421AFBDE8FC8110000020F5
:102960000C000020240100200E0000201200002096
:102970002E0400202DE9F041C6B006460F469046D1
:102980001D464C9C55208DF81001AA208DF8110190
:102990008DF812618DF813718DF81481ADF8154121
:1029A00044980290BDF81401ADF80C009DF8160192
:1029B0008DF80E0035B12CB1224629460DF10F00DD
:1029C000FDF7B2FBE01D81B202A8FFF7AFFE019058
:1029D000E01D81B202A800F0B3F8022101A800F0C6
:1029E000AFF846B0BDE8F08110B504460A4619E0DC
:1029F0002178137809B9002010BD612904DB7A29F8
:102A000002DCA1F12000C1B2612B04DB7A2B02DCD5
:102A1000A3F12000C3B2994201D00020ECE7641C6E
:102A2000521C00BF10780028E2D10120E4E700002A
:102A3000F0B501462648806944F204021043244A56
:102A400090612448006820F47F60224A106010469C
:102A5000006840F40B60106010151E4A0C321060C4
:102A60001D48006810B11C48006800E01B4804467F
:102A700004EB5100B0FBF1F31948036042F22C0063
:102A8000174A121D10600020121D1060121D1060E8
:102A900025200122002804DB15072E0E114D2E548F
:102AA00006E015072F0E104D00F00F06361FAF552C
:102AB00000BF2520002809DB00F01F050122AA40E5
:102AC0004509AD0005F1E025C5F8002100BFF0BDC6
:102AD00000100240040801401400002000A24A0433
:102AE0000838014000E400E018ED00E001460A4823
:102AF00000880A4A1288904201D100207047084895
:102B0000064A1288805C087004480088401CC0B2E5
:102B1000024A10800120F1E7080000200A0000208E
:102B20002400002000BF0549096801F08001002948
:102B3000F9D00249091D08607047000000380140C3
:102B400010B503460C46002204E0985CFFF7EAFF4C
:102B5000501C82B2A242F8DB10BD00000FB42DE978
:102B6000F047D2B000245BA80190F9E05A9890F8A1
:102B700000A0BAF1250F09D0B4F59F7F05D82046F3
:102B8000611C8CB202A901F800A0E6E024B1214644
:102B900002A8FFF7D5FF00245A98401C5A905A9873
:102BA000007800B9E1E05A980078252802D1FEF7B4
:102BB00027FAD2E020254FF000095A9800783028F3
:102BC00003D130255A98401C5A900FE05A9800784B
:102BD000303809EB890100EB410000F0FF095A98F9
:102BE000401C5A905A98007800B907E05A9800782B
:102BF000302803DB5A9800783928E7DD00BF5A985F
:102C0000007800B9B1E000275A9800786C2807D105
:102C100001275A98401C5A905A98007800B9A4E0AD
:102C20005A980678702E67D008DC582E63D0632E31
:102C30000BD0642E24D0692E72D122E0732E0CD0DA
:102C4000752E42D0782E7FD154E0019911F8042BD3
:102C5000D0B20191FEF7D4F97DE0019850F8048BD1
:102C60000190B8F1000F01D10FF2181803E018F825
:102C7000010BFEF7C5F998F800000028F7D16AE0CB
:102C800000BF2FB1019800680199091D019104E06E
:102C9000019800680199091D01918046B8F1000F63
:102CA0000BDA2D20FEF7ACF94B4600220A21C8F1C1
:102CB00000000095FEF7AAF906E04B4600220A2123
:102CC00040460095FEF7A2F945E02FB10198006853
:102CD0000199091D019104E0019800680199091DFD
:102CE000019180464B4600220A2140460095FEF79E
:102CF0008DF930E000BF00BF702E0AD1019850F866
:102D0000048B01903020FEF77BF97820FEF778F9EC
:102D10000DE037B1019800680199091D019105E0A6
:102D200012E0019800680199091D01918046009503
:102D3000582E01D1012000E0002002464B46102110
:102D40004046FEF763F906E02520FEF759F93046C4
:102D5000FEF756F900BF00BF00BF5A98401C5A90BA
:102D60005A98007800287FF401AF00BF1CB12146BB
:102D700002A8FFF7E5FE0020019052B0BDE8F00781
:102D80005DF814FB286E756C6C2900000528FF3F68
:102D9000FF3FFF3F0900003020008C018E011E30F4
:102DA00021008C008E0023008C018E01FF3FFF3F2D
:102DB000FF3FFF3FFF3FFF3FFF3FFF3FFF3FFF3F23
:102DC000FF3FFF3FFF3FFF3FFF3FFF3FFF3FFF3F13
:102DD000FF3FFF3FFF3FFF3FFF3FFF3FFF3FFF3F03
:102DE000FF3FFF3FFF3FFF3FFF3FFF3FFF3FFF3FF3
:10318000FF3FFF3FFF3FFF3FFF3FFF3F00000000CB
:103190000000000001020304060708090000000007
:1031A0000102030402030405060708090A0B0C0DBB
:1031B0000E0F10100102000020202020205B57413C
:1031C000524E5D204C56503D4F46463A2074686939
:1031D00073204C56502070726F6772616D6D65720E
:1031E0002063616E6E6F742072652D656E746572FA
:1031F0002074686520636869702C207265706C614A
:103200006365206974210D0A000000005B5741527C
:103210004E5D20436F64652050726F7465637469FE
:103220006F6E2028435029206973204F4E2120467D
:103230006C61736820726561642077696C6C2062D0
:1032400065206D61736B65642028307830303030D4
:1032500029206279206368697020686172647761EF
:1032600072652E0D0A000000202044554D5020208C
:103270002020202020202020202020202D204475C8
:103280006D7020656E7469726520344B20466C61E8
:103290007368202620436F6E66696720617320493A
:1032A0006E74656C204845580D0A00005B4552520B
:1032B0005D20504943204E6F7420466F756E642028
:1032C0006F7220496E636F6D70617469626C652105
:1032D00020436865636B20776972696E6720616E51
:1032E0006420706F7765722E20436F64653D25649E
:1032F0000D0A000014330008000000202400000024
:10330000940F000838330008240000208C0C0000C3
:10331000A40F00080000000000A24A040000000002
:10332000000000000000000000127A000000000011
:08333000100000000100000084
:04000005080000ED02
:00000001FF
