:020000040800F2
:10000000F808002035020008D33B0008B13700088B
:10001000D13B0008272300089141000800000000A0
:10002000000000000000000000000000D73B0008B6
:100030002923000800000000D53B0008D93B000838
:100040004F0200084F0200084F0200084F0200084C
:100050004F0200084F0200082D2300084523000826
:100060005D230008752300084F0200084F020008B6
:100070004F0200084F0200084F0200084F0200081C
:100080004F0200084F0200084F0200084F0200080C
:100090004F0200084F0200084F0200088D2300089D
:1000A0004F0200084F0200084F0200084F020008EC
:1000B0004F0200084F0200084F0200084F020008DC
:1000C0004F0200084F0200084F0200084F020008CC
:1000D0004F0200081D4000084F0200084F020008B0
:1000E0004F0200084F0200084F02000800F002F81B
:1000F00000F090F80AA090E8000C82448344AAF132
:100100000107DA4501D100F085F8AFF2090EBAE82F
:100110000F0013F0010F18BFFB1A43F0010318473B
:100120000050000020500000103A24BF78C878C169
:10013000FAD8520724BF30C830C144BF04680C60ED
:10014000704700000023002400250026103A28BF35
:1001500078C1FBD8520728BF30C148BF0B60704739
:100160006E2900F00B83702900F05584662904F095
:100170000D86652904F00A86672904F0078661293F
:1001800004F0068603681B0A28BF41F08001692934
:1001900000F0B882642900F0B582752900F0B282BF
:1001A0006F2900F0E283782900F02184E92900F02A
:1001B0007D83E42900F07A83F52900F07783EF2925
:1001C00000F0DF83F82900F020840368DB0928BFF2
:1001D00041F08001632901F0AB81732901F0B08106
:1001E000E32901F0BB81F32901F0C08100207047B1
:1001F0001FB500F01DFA04000020002104F048FCA7
:10020000401C60600020002104F058FCE0601FBD2D
:1002100010B510BD01F0D7FB1146FFF7E9FF04F060
:100220001FF801F0A7FC03B4FFF7F2FF03BC01F0D5
:10023000ABFC00000948804709480047FEE7FEE79D
:10024000FEE7FEE7FEE7FEE7FEE7FEE7FEE7FEE786
:1002500004480549054A064B704700003B3C00082E
:10026000ED000008F8020020F8080020F804002043
:10027000F804002010B500F0DBF9001D10BD00BF30
:100280001148000010B50446FFF7F4FF0068005D58
:10029000000704D5DF2C02D0A4F1200010BD2046B9
:1002A00010BD00007CB51D4616460C00009001D024
:1002B0002044401E074B7B442A4669460190304645
:1002C00000F075FA05461CB10020694600F082FA7C
:1002D00028467CBD250500000FB400B58DB010A9DF
:1002E000099000910B904FF0FF300A9000200C9085
:1002F000064878440690064878446A4607900F9965
:1003000009A800F06BFC0DB05DF814FB07090000B4
:100310001F0900002DE9FF5F1D464FF0FF3B91468E
:100320004FF000085F46D5E90146A96901987F1C96
:100330008847296A824688470028F6D1BAF1FF3FEC
:100340000CD0002E24F4C06419DD600614D5BAF177
:100350002B0F09D0BAF12D0F0ED103E0584604B08F
:10036000BDE8F09F44F48064A96901987F1C884728
:10037000761E8246002E02DDBAF1300F03D0B9F1AD
:10038000000F26D032E0A969761E01987F1C44F444
:1003900000748847002E824605DDBAF1780F06D03A
:1003A000BAF1580F03D0B9F1000F10D01EE0B9F127
:1003B000000F02D0B9F1100F18D1A969761E01986B
:1003C0007F1C24F4007488478246102002E0082035
:1003D00000E00A20814609E0A96908FB0908761EA9
:1003E00001987F1C44F4007488478246002E05DD86
:1003F0004946504600F0DEFB0028EDDAE969019835
:100400008847A00502D46FF00100A8E7E00725D1D6
:10041000600613D5600502D5C8F1000000E0404633
:1004200029680A1D2A600968220501D5087015E0AF
:10043000220701D5088011E008600FE02868011D3F
:1004400029600068210502D580F8008006E02107B8
:1004500002D5A0F8008001E0C0F8008038467EE7B1
:100460002DE9FF5F4FF00008994614464646916912
:10047000D2E901A7DDF838B001988847054659EA66
:100480000B0005D009E0A1690198761C8847054654
:10049000216A284688470028F5D1681C03D05FEA06
:1004A000CA7005D015E04FF0FF3004B0BDE8F09FF2
:1004B0002068011D2160D0F800800AE05FEACA7060
:1004C00001D108F8015BA169761C01987F1E88475D
:1004D0000546002F1ADD681C18D0B9F1000F0DD0A9
:1004E000E81705EBD060421120F01F0059F82210E8
:1004F0002A1A012090400142E0D107E0BBF1000F31
:10050000DCD12846216A88470028D7D0E1690198C4
:100510008847BBF1000F07D1002E05DD5FEACA70E6
:1005200002D1002188F80010A068B84203DDBBF1B9
:10053000000F03D017B16FF00100B6E73046B4E703
:1005400070B5064600F078F80468054630460A2281
:10055000002100F073FB2C6070BD4FF0000200B56D
:10056000134694469646203922BFA0E80C50A0E8D6
:100570000C50B1F12001BFF4F7AF090728BFA0E884
:100580000C5048BF0CC05DF804EB890028BF40F850
:10059000042B08BF704748BF20F8022B11F0804F92
:1005A00018BF00F8012B70474FF0013C50F8042BA6
:1005B00051F8043B9A4221D1A2EB0C03934313EA76
:1005C000CC1317D150F8042B51F8043B9A4215D1A3
:1005D000A2EB0C03934313EACC130BD150F8042B7A
:1005E00051F8043B9A4209D1A2EB0C03934313EA5E
:1005F000CC13DBD04FF00000704700BFD01A01BA17
:10060000B1FA81F101F0180122FA01F0CB40C1F1F9
:100610002001DBB2C0B2C01A2CFA01F3D11A914307
:1006200011EAC311E6D17047704770477047000068
:1006300000487047B4020020004870479402002030
:1006400070B5044685690068C10601D5302600E012
:100650002026C00707D070BDD4E90121304690475D
:10066000206A401C20626D1EF6D570BD70B5044630
:1006700085690078C00707D170BDD4E90121202029
:100680009047206A401C20626D1EF6D570BD096837
:100690004A0501D540B27047C905FCD500B2704784
:1006A00009684A0501D5C0B27047C905FCD580B2BA
:1006B000704770B50C460546012A05D0287880069B
:1006C00000D5EA69002302E0012305E05B1C9342A8
:1006D00002D2E05C0028F9D1A869E618C01AA86126
:1006E000286A184428622846FFF7AAFF04E0D5E9E3
:1006F000012114F8010B9047B442F8D32846FFF7C4
:10070000B5FF70BD2DE9F04106460024106875293B
:10071000314616A510D0FFF7BAFF002802DA404292
:1007200013A507E031688A0701D512A502E0490741
:1007300004D511A5012401E0FFF7B2FF00210A2230
:1007400006F1240709E0B0FBF2FCB0FBF2F302FB78
:100750001C00303078541846491C0028F3D1234639
:100760002A463046BDE8F04100F0F2BA0000000031
:100770002D0000002B00000020000000116802681E
:10078000006A530501D508700AE0D30501D5088039
:1007900006E0130603D5C217C1E9000200E00860B5
:1007A0000120704701694A1C02610878704700B552
:1007B0008FB0CDE901310021059105497944CDE99A
:1007C00003101146684600F031F90FB000BD00007B
:1007D000E5FFFFFF0A6802F8010B0A607047D1E9E4
:1007E00000239A4202D2531C0B6010707047000025
:1007F0002DE9FF5F15468A460446DFF8AC80F844D1
:100800000027D8E900103E46CDE9001010E03AF884
:1008100016106A4602A801F0B6F8411C07D02178EC
:10082000890603D5E269391891420DD80744761C30
:100830002078800602D5E069B84205DDAE42E6DBED
:100840003AF816000028E2D1A069C01BA06120463A
:10085000FFF7F6FED8E90010CDE90010002017E000
:100860003AF818106A4602A801F08DF8B0F1FF3F7F
:1008700081460BD000250DF1080B05E0D4E90121DC
:100880001BF8050090476D1C4D45F7D308F101009A
:10089000B0428046E4DB206A384420622046FFF7FD
:1008A000E5FEBDE8FF9F0000BE4500002DE9F041D8
:1008B0008046D21D22F007020025D2E90002F52968
:1008C00015A614D0011E72F1000106DA0023D0EB48
:1008D000030063EB020211A608E0D8F800108B07B2
:1008E00001D50FA602E0490701D50EA60125114644
:1008F000002408F1240704E000F0DCF930323A5516
:10090000641C50EA0102F7D12B463246214640468C
:10091000BDE8F04100F01CBA000000002D0000000E
:100920002B0000002000000030B4002100F124045E
:1009300008E002F00705D208303542EA4372DB08CE
:100940006554491C52EA0305F3D10468002310A240
:10095000250707D5A40600D421B1C46901230DA23F
:10096000641EC46130BC00F0F3B910B504462146E2
:100970001068FFF795FE02462046BDE810400023B0
:10098000D2E7D21D22F00701D1E90023CCE7000015
:100990000000000030000000F0B40D460188090599
:1009A00002D5214C7C4402E01F4C7C440E340021D3
:1009B00000F1240608E002F00F071209E75D42EAA1
:1009C00003721B097754491C52EA0307F3D10278DA
:1009D0000023120704D5702D06D009B1022311346B
:1009E0002246F0BC00F0B4B901231034F8E770B52A
:1009F00004460D4621461068FFF752FE024629467E
:100A00002046BDE870400023C6E7D21D22F0070350
:100A1000D3E90023C0E70368126843F020030360B2
:100A20000823C3610023B7E7204400002DE9F05FED
:100A3000894604464FF0000ADFF874B1FB44C0F861
:100A400020A02046E1688847002874D0252806D0D9
:100A5000D4E901219047206A401C2062F1E700267A
:100A60005F462046E16888472028054607DB312D90
:100A700005D2781910F8200C08B10643F1E7B00749
:100A800001D526F00406C4F81CA00027C4F818A05D
:100A90002A2D09D0284603F0A0FB38B304EB8708C1
:100AA000303DC8F8185019E059F8041B204604EBF3
:100AB00087029161E1688847012F054618D1E069F6
:100AC000002820DA26F020061DE0D8F8180000EBF8
:100AD000800005EB40003038C8F818002046E16877
:100AE0008847054603F079FB0028EED1012F0AD094
:100AF0002E2D08D12046E16888477F1C0546022F2D
:100B000046F02006C4DBA069002803DA404246F024
:100B10000106A061F00701D026F010066C2D0BD065
:100B2000682D09D04C2D39D06A2D35D0742D35D093
:100B30007A2D33D016E038E0E1682F46204688470A
:100B4000B842054609D16C2F26D04FF48060E16889
:100B5000064320468847054604E06C2F1AD04FF420
:100B6000807006430DB3A5F14100192802D8203545
:100B700046F400664A462946204626604E46FFF760
:100B8000EFFA80B101280BD0F61D26F0070000F126
:100B9000080956E74020E4E78020D8E70020D6E7A0
:100BA00006F104094DE7284652E7206ABDE8F09FA8
:100BB000B04300003A2800D2303820F02002412A09
:100BC00001D3A2F13700884201D34FF0FF307047C4
:100BD000026811441378016018467047D1600549D6
:100BE000794451610449794411620021116111462F
:100BF00000F0C0BCEDFFFFFF55010000426842B1AC
:100C0000016811F8013B23B1521EC0E900121846D9
:100C100070470121C160881E704742685AB1C3689D
:100C2000016843B983688B4205D0491E521CC0E954
:100C30000012002070474FF0FF3070472DE9F04759
:100C400091460F4680460446002614F8015B2DB1FC
:100C5000FFF710FB0068405DC007F6D12B2D02D0D6
:100C60002D2D18D0641E4A463946204600F03CFE21
:100C700027B13968A14201D1C7F800804FF00204C2
:100C800071050BD54042002803DDFFF7D5FC046059
:100C9000A007BDE8F08746F48066E4E70028F8DAAC
:100CA000FFF7CAFC04606FF00040F2E700487047AD
:100CB0009402002030B5B0F10A024FEA900E71F1B3
:100CC00000034EEA817EB0EB0E0061EB91014FEA2A
:100CD000101E4EEA017E10EB0E0041EB11114FEA9F
:100CE000102E4EEA016E10EB0E0041EB11214FEA7F
:100CF000104E4EEA014E10EB0E0041EB1141401830
:100D000041F100014FEAD00040EA41704FEAD101C1
:100D100010EB80054FEA810444EA907444EB01042F
:100D20006D1944EB0404521BA3414FF0000348BF6C
:100D30000A3200D530BD401C41F1000130BD10B574
:100D40000446FFF797FA0068005D00F0010010BD4F
:100D50002DE9F0470D4699469246044600F12408D5
:100D60000168880604D5E06921F01001216000E0E7
:100D70000120A84201DD471B00E00027A1697A1984
:100D800002EB0900081AA0612078C00602D42046B0
:100D9000FFF756FC002608E0D4E901211AF8060006
:100DA0009047206A401C761C20624E45F4DB207878
:100DB000C0060AD52046FFF743FC06E0D4E901212E
:100DC00030209047206A401C2062381EA7F101079E
:100DD000F4DC07E0D4E9012118F805009047206A07
:100DE000401C2062281EA5F10105F3DC2046FFF718
:100DF0003DFC2078000602D50220BDE8F0870120E6
:100E0000FBE770472DE9FF4F0C461E464FF0FF37BA
:100E10008BB0D2E90001DDF860800A908A46C1F308
:100E20000A5505B93D46002108464FF00000BAF1C9
:100E3000000F00F4400005DA00EB80004FF44001A1
:100E400001EA50004FEA9059B9F1010F00DDB946AF
:100E50000A9850EA4A000ED044F61050A5F2FF3529
:100E600045432F14B8F1000F1ED07542291E1EDD18
:100E7000C9F100021CE0B8F1010F4FF0000001D0F1
:100E8000302103E0F24305E02154401CB042FBDB7B
:100E900030460022002121540B99C1F80880C1E995
:100EA00000200FB0BDE8F08FBD1B6D1CDEE74A4689
:100EB00000DA694206A800F0EBFD06AB93E80700F4
:100EC00003AB83E8070050460A9900F064FE8DE802
:100ED0000700A0F500501F3800900398002D0ADD90
:100EE00042F21F014A460844002303A903906846C2
:100EF00001F0CDF809E0A0F500504A461F38002364
:100F000003A90390684601F0D7F88DE807000004B4
:100F1000000C03D04FF0FF30410800E01046B8F15C
:100F2000000F03D00022009215461EE0751E05D466
:100F3000FFF7C0FE303262556D1EF9D5B34601226F
:100F4000084302D000227F1C04E02078302801D121
:100F500000227F1E002A099784D01DE0112D07DA98
:100F6000FFF7A8FE303262556D1C50EA0102F5D140
:100F7000084302D00098C8B10EE00021681E05E0C9
:100F8000235C625C63542254401E491C8142F7DB9F
:100F9000AB46A81B401E0990002004F80B000B98DC
:100FA000099AC0F80880C0E9002B7AE711264FF0B3
:100FB000000857E72DE9F04F88460446D21D22F07D
:100FC000070191B0D1E90001CDE90A0103F0E1F890
:100FD00002460B98C00F01D02D2007E02068810742
:100FE00001D52B2002E0202101EAC000032A09904C
:100FF00001D0072A05DB03464146204600F008FDE4
:101000000BE12078800601D5E06900E00620B8F108
:10101000650F814606D0B8F1660F18D0B8F1670F9A
:1010200070D131E00020B9F1110F009001DB1123E4
:1010300001E009F101030AAA01A90CA8FFF7E2FEE9
:10104000DDE90C70002609F10105834647E0012027
:101050004B4600904FF000470AAA01A90CA8FFF7E1
:10106000D1FEDDE90DB00C995D46002610B909F1FD
:1010700001000D18B9EB050003D4C0F1FF3609F1EA
:101080000105A5EB09002BE0B9F1010F01DA4FF0E2
:1010900001090020B9F1110F0090484601DD11232C
:1010A00000E003460AAA01A90CA8FFF7ABFEDDE9A0
:1010B0000C704D4600268346207800070AD4AB45C5
:1010C00000DA5D4601A8012D04DD411911F8011C6B
:1010D000302907D04F4502DA17F1040F04DA012056
:1010E00082460FE06D1EEEE7002F02DCED1B3E4452
:1010F00003E0781CA84200DD7D1CB81B00F1010A4A
:101100004FF000472078000703D4AA4501DB4FF0D9
:10111000FF3A0021B7F1004F0DF143088DF843105D
:1011200024D002202B23002F01DA7F422D230A2115
:10113000021EA0F1010000DC5FB197FBF1FC97FB00
:10114000F1F201FB1C7C17460CF1300C08F801CDC4
:10115000EEE7A8F1010003702188090501D54521BA
:1011600000E06521A0F1010800F8011C09980FA911
:10117000A1EB0807FF1D00B10120411901EBEA7046
:10118000A1693844081A401EA0612078C00602D424
:101190002046FFF755FA099828B1D4E90121904774
:1011A000206A401C20622078C00622D52046FFF726
:1011B00047FA1EE0002E04DBB34502DD01A8805D86
:1011C00000E03020D4E901219047206A401C2062D1
:1011D000761CAAF101005FEA000A0AD1FFF728FA9B
:1011E000C0680168405CD4E901219047206A401C36
:1011F0002062281EA5F10105DCDC07E0D4E901210D
:1012000018F8010B9047206A401C2062381EA7F195
:101210000107F3DC2046FFF729FA032011B041E66D
:101220002DE9F04F04460D46D21D22F0070089B08B
:10123000D0E900974846394602F0ABFF0246F80F66
:1012400001D02D2307E02068810701D52B2302E080
:10125000202101EAC0038DF820300BB1012000E00D
:101260000020032A824601D0072A04DB29462046B3
:1012700000F0CEFB3FE12078800601D40D2500E090
:10128000E569C7F30A560D2D49DA00214FEA175BCD
:1012900008464FF00000002F00F4400007DA00EB92
:1012A00080004FF4400100EBD07001EA600081152E
:1012B000012901DD4FF0FF3100224FEA850CBCF11E
:1012C000180F06D31346ACF118004FF08052C240FD
:1012D00003E04FF4801323FA0CF30CF10C0CBCF177
:1012E000200F04D3ACF1200C09FA0CF001E007FA4E
:1012F0000CF000294FF0004801DD18B90FE00ED1C5
:1013000040450CD319EB02095F4121B9404502D198
:101310009F4329EA0209BBEB175F00D0761C2088A7
:10132000000502D57B48784402E07A4878441938B1
:1013300008AA302302F80A30037C0AF10101002ECA
:101340000AF1020A53546A4602DC4FF0300101E010
:101350004FF031014FF001088DF8001002D0A6F2D5
:10136000FF3603E059EA470100D06B4E002D02DC46
:101370002178090704D54FF002082E218DF80110BD
:10138000C44600210BE0C7F303433F01C35C491C83
:101390006D1E02F80830052908F1010801DA002D58
:1013A000F1DC00210CE000EB1973491C1B786D1E69
:1013B000082902F808304FEA091908F1010801DA92
:1013C000002DF0DC21688B0602D516E0A8F101089B
:1013D000E04505DD02EB080313F8013C302BF5D0A6
:1013E000B8F1000F09DD02EB080313F8013C2E2BC6
:1013F00003D1090701D4A8F10108002D05DD3E2124
:1014000002F808106D1E08F10108407C002E02F859
:10141000080008F1010804DA2D20764202F80800DD
:1014200002E02B2002F808000A214FF47A7086426D
:1014300008F101080BDB96FBF0F3303302F80830BB
:1014400096FBF0F308F1010800FB136601E0642E3F
:101450000CDB642096FBF0F3303302F8083096FB87
:10146000F0F308F1010800FB136601E00A2E06DB29
:1014700096FBF1F0303002F8080008F1010896FB05
:10148000F1F001FB1060303002F80800A16908F1AA
:10149000010808EB050202EB0A00081AA061207897
:1014A000C00602D42046FFF7CBF8216A08AE01EB54
:1014B0000A00206204E0D4E9012116F8010B9047EC
:1014C000BAF1010AF7D22078C00602D52046FFF70C
:1014D000B7F86E4609E016F8010B3E280FD0D4E9A4
:1014E00001219047206A401C2062B8F10108F2D225
:1014F0002046FFF7BBF809B00320BDE8F08F206A53
:101500002844206203E0D4E90121302090476D1E79
:10151000EBD3F8E7EA3A000002FCFFFF10B543699D
:1015200013B1AFF3008001E0FFF7C3F8012010BD55
:10153000127800F124010A7000224A700122EDE7BE
:1015400011684FF0FF32E9E710B5436913B1AFF30B
:10155000008001E0FFF74CF9012010BD128800F176
:10156000240182840022C2840122EDE711684FF039
:10157000FF32E9E72DE9F34F4FF0000A0C465646DB
:101580008DB001200C9001F10C000B9062690B985A
:1015900001219047051E2DD0252D2CD0216A88478A
:1015A000C0B162690B9801219047216A88470028E1
:1015B000F7D16269411E0B98904700E0761CA16943
:1015C0000D988847216A88470028F7D1E1690D986E
:1015D0008847DBE7A1690D988847A842074601D1F3
:1015E000761CD3E7E1690D9888477F1C02D1BAF1D8
:1015F000000F6FD06CE162690B9800273D463946B9
:1016000090472A2804D162690B980121904701254F
:10161000DFF8D08262690B9801219047A0F1300178
:101620000A290AD24745E5DC07EB870100EB4107B1
:10163000303FDFD445F01005ECE7E90601D46FF048
:1016400000476C280AD04C2814D0682815D06A2886
:101650000DD074281CD07A281AD01DE062690B982E
:10166000012190476C2802D045F0040514E045F0B4
:1016700002050DE045F020050AE062690B980121A2
:101680009047682802D045F0080505E045F400655C
:1016900062690B9801219047C4E9015765283DD044
:1016A00019DC58287AD00CDC452837D004DC2528F2
:1016B00026D041289ED131E046282FD0472899D105
:1016C0002CE05B2877D0612828D063287CD0642860
:1016D00023D15AE0F7E06F2848D008DC66281DD0F7
:1016E00067281BD0692821D06E2816D127E07028E2
:1016F00045D0732868D0752847D078280DD14DE0A3
:10170000A1690D988847252805463FF469AFE1692E
:101710000D9888476D1C3FF46AAFD9E00D992346B8
:101720006A466FF00100AFF30080C6E045F040006C
:1017300023464FF000026060A80736D43EE0E80779
:101740007FF447AF2068011D21600068290501D59D
:1017500006701BE7290701D5068017E7A90703D5FF
:10176000F117C0E9006111E706600FE745F040009E
:1017700023464FF008026060A80716D41EE040F62A
:101780000E0125EA0100606016E045F040002346A6
:101790004FF00A026060A80707D40FE045F0400050
:1017A0006060A80708D5234610220D996FF001004C
:1017B000AFF3008081E007E0102223460D996FF01F
:1017C0000100FEF7A7FD78E04FF0000963284F46BF
:1017D000C8464B46CB4602D05B2807D039E020797B
:1017E000C00601D40120A060012732E06269D4F86C
:1017F0000CB00B98012190475E2807D14FF00109EA
:1018000049466269D4F80CB00B989047216939B900
:1018100000210A4603AB43F82120491C0829FADBC2
:10182000D8B3216949B308F1010862690B98012115
:1018300090475D28F4D1B9F1000F09D0002003A929
:1018400051F82020D24341F82020401C0828F7DB23
:1018500003AB2069002820794FEA40701ED05B4618
:101860002246CDF80080CDE901970D9900286FF050
:10187000010020DAAFF300801FE0C11703AA00EBDC
:10188000D1614B1121F01F0102EB8302411A136851
:101890000120884003431360C7E719E00D992246F1
:1018A00000286FF00100009702DAAFF3008004E037
:1018B000FEF7D6FD01E0AFF3008000280ADA401CF5
:1018C00006D10C9820B14FF0FF300FB0BDE8F08F7B
:1018D0005046FAE7E90701D10AF1010A064400205F
:1018E0000C9053E6CCCCCC0C2DE9F05F824615462B
:1018F0008B4600270AF10104B9460078302801D050
:101900009DB113E014F8010B0127782803D0582863
:1019100001D045B10AE00DB1102D07D1002714F810
:10192000010B102502E0082500E00A250026B0463C
:101930000EE005FB080005FB06F101271FFA80F801
:1019400001EB1046B6F5803F00D3B94614F8010B01
:101950002946FFF72FF90028EBDABBF1000F05D07D
:101960000FB1641E00E05446CBF80040B9F1000FFF
:1019700006D0FEF761FE02210160C81EBDE8F09F9F
:1019800048EA0640FAE770B516460C460546FEF7EB
:1019900071FC036893F80101012806D0FF2C0FD8D1
:1019A000185D68B101202C7070BDD3F80701324674
:1019B000214603F2071303442846BDE87040184748
:1019C0004FF0FF3070BD7546FFF770F9AE46050069
:1019D0006946534620F00700854618B020B5FEF74B
:1019E00037FCBDE820404FF000064FF000074FF0F5
:1019F00000084FF0000B21F00701AC46ACE8C0092D
:101A0000ACE8C009ACE8C009ACE8C0098D46704735
:101A10002DE9F0411F46044603260168072A01F418
:101A2000006004DB08B116A505E016A503E008B1C7
:101A300015A500E015A521F010002060A069C01ECA
:101A4000A0610FB1401EA0612046FEF7F9FD4FB125
:101A5000D4E9012138469047206A401C2062C01C0E
:101A6000206206E0206AFAE7D4E9012115F8010BAB
:101A70009047761EF8D22046FEF7F8FDBDE8F081CB
:101A80004E414E006E616E00494E4600696E660022
:101A90002DE9F047814616468AB0354878440DC88E
:101AA0008DE80D0032487844801C03AC0DC884E8F2
:101AB0000D0041F69B300844372190FBF1F290FB7A
:101AC000F1F5A5F1800501FB12041B3C02D564422F
:101AD000012000E00020DFF898A080460027FA44AB
:101AE000AAF1BE0A0EE0E0070AD03246684607EBCC
:101AF000470101230AEB810100F0DEFA8DE80700BF
:101B000064107F1C002CEED1194F7F44AE3F19E0CA
:101B1000E80715D007EB04100DF1180A90E80E0045
:101B20008AE80E00C068F04201D198190890324648
:101B3000012306A903A800F0BFFA03AB83E807005E
:101B40006D10641C002DE3D14FF00103324669464D
:101B5000B8F1000F03A802D000F099FA01E000F0FC
:101B6000ABFAC9E90001C9F808200AB0BDE8F0875E
:101B70000434000010B50446AFF300802046BDE8F1
:101B80001040FEF750BB000001491820ABBEFEE735
:101B90002600020070475FEA400C08BF91F0000F7A
:101BA0004FEA8C234FEAC12243EA51514FEA1C50BD
:101BB00018BF00F5F0404FEA300018BF41F0004177
:101BC0005FEA6C5C00F02980BCF1FF3F08BF40F089
:101BD00080407047130C06BF12044FF0100C4FF0FA
:101BE000000C130E04BF12020CF1080C130F04BFFB
:101BF00012010CF1040C930F04BF92000CF1020CC3
:101C0000D30F04BF52000CF1010C11464FF000023B
:101C1000A0F11F00A0EB0C00704711F0004F08BFAF
:101C2000704731F000413FF4D5AF0B0C06BF0904FB
:101C30004FF0100C4FF0000C0B0E04BF09020CF11A
:101C4000080C0B0F04BF09010CF1040C8B0F04BF2F
:101C500089000CF1020CCB0F04BF49000CF1010C00
:101C6000CCF12003A0EB0C0022FA03F302FA0CF2F1
:101C700041EA030100F10100704720F07F4C80EA47
:101C8000030023F07F47ACEB070303F57C5300F020
:101C9000004003F1FF032DE980494FEA154B09B4D9
:101CA0004FEA144325EA0B4E24EA03480FF20426B8
:101CB00006EB132749083E785FEA320203FB06670A
:101CC000C7F5000707FB06F64FEA54374FEAD6463A
:101CD00006F1020607FB066CCCF1005C4FEA1C47DC
:101CE0002CEA074C07FB06F40CFB06F504EB154643
:101CF0004FEA961634BF00204FF000404FEAD1372C
:101D000006FB07FC4FEA1C4C0CFB0BF7D21B03FB3A
:101D10000CF761EB07010CFB0EF7B0EB074072EB21
:101D200017420CFB08F734BFA2EB0742B2EB0742A5
:101D300061EB17414FEA0C444FEA910706FB07FCA1
:101D40004FEA1C4C0CFB0BF7B0EBC74072EB573261
:101D500003FB0CF734BFA2EBC742B2EBC74261EB07
:101D600057310CFB0EF7B0EBC70072EB57720CFB50
:101D700008F734BFA2EBC702B2EBC70261EB5771A1
:101D8000039F4FEA816141EA921104EBCC044FEAD0
:101D9000D1374FEA826206FB07FC42EA90124FEA13
:101DA00080604FEA1C4C0CFB0BF7D21B03FB0CF7BB
:101DB00061EB07010CFB0EF7B0EB074072EB17422B
:101DC0000CFB08F734BFA2EB0742B2EB074261EB12
:101DD00017414FEA8C554FEA910704EB9C2406FB10
:101DE00007FC4FEA1C4C0CFB0BF7B0EBC74072EB47
:101DF000573203FB0CF734BFA2EBC742B2EBC7422A
:101E000061EB57310CFB0EF7B0EBC70072EB57726A
:101E10000CFB08F734BFA2EBC702B2EBC70261EBC1
:101E2000577115EB4C254FEA816141EA92114FEA57
:101E300082624FEAD13742EA901206FB07FC44F176
:101E400000044FEA80604FEA1C4C0CFB0BF7D21BDE
:101E500003FB0CF761EB07010CFB0EF7B0EB07403F
:101E600072EB17420CFB08F734BFA2EB0742B2EB50
:101E7000074261EB174115EB1C154FEA813141EA2E
:101E800092414FEA823242EA90424FEA80304FEA72
:101E90000C7644F1000448EA03434EEA0B484FF045
:101EA000000EB2EB080C71EB030724BF6246394603
:101EB0004EEB0E0E4FF0000B0018524149414BEB18
:101EC0000B0BB2EB080C71EB03077BF1000B24BF8B
:101ED000624639464EEB0E0E4FF0000B0018524191
:101EE00049414BEB0B0BB2EB080C71EB03077BF199
:101EF000000B24BF624639464EEB0E0E51EA020734
:101F000018BF46F0010616EB0E7655F1000254F1AB
:101F1000000103D5BDE88901BDE80088BDE889015D
:101F2000BDE80048B619524141EB0101A3F101039C
:101F3000704780807F7E7D7C7B7A79787776767536
:101F40007473727171706F6E6E6D6C6C6B6A6A69AE
:101F50006868676666656464636362616160605F48
:101F60005F5E5E5D5D5C5C5B5B5A5A5959585857C1
:101F70005756565555555454535352525251515029
:101F800050504F4F4F4E4E4D4D4D4C4C4C4B4B4B7C
:101F90004A4A4A49494948484847474747464646C2
:101FA00045454544444444434343434242424241FD
:101FB0004141002B9C4630D477002BD01CB54FEA12
:101FC000370703B44FF010004FF01001BAF1000FC3
:101FD00006D0BCF1000FDCBF40F0080040F0080163
:101FE0004FF000000FBCBDE810400BF1010BBBF13E
:101FF000010F08BF5FEA170722BF12F1010211F1BA
:1020000001014FF0004143F1000300F0004043EABA
:1020100000007047F9D35708D0E746EA064613F1A7
:10202000400F4FEA16461FDD13F1200FDFBF1643A6
:102030000A46002120335B42BED0C3F1200746EAA6
:10204000064602FA07F74FEA164646EA0706C3F1C4
:10205000200722FA03F201FA07F721FA03F14FF001
:10206000000342EA0702A7E746EA020646EA0646F6
:102070004FEA164646EA0106BCBF46EA0646360C5B
:102080004FF000034FF000024FF0000194E72DE9FC
:10209000804C9A46934670B491E8380007C831EAFC
:1020A000400C48BF34EA430C03D5FFF7E6FDFFF7C9
:1020B00080FFF0BCBDE8008C2DE9804C9A46934629
:1020C00070B491E8380007C810F0804F08BF13F0D3
:1020D000804F03D100F005F8FFF76BFFF0BCBDE8BF
:1020E000008C20F07F4780EA030023F07F4C07EB51
:1020F0000C03A3F57C5300F00040A3F1FE0392F023
:10210000000F00F0B38095F0000F00F077802DE90C
:1021100001494FEA11404FEA144621EA004800FB0A
:1021200006FC24EA064708FB06F607FB08F800FB56
:1021300007F718EB06484CEB164C4FEA124B18EB1E
:1021400007484FEA15464CEB174022EA0B4E0BFBB3
:1021500006FC25EA06470EFB06F607FB0EFE0BFB08
:1021600007F71EEB064E4CEB164C4FF000061EEB2D
:10217000074E4CEB174B18EB0B0840F1000018EB27
:102180000E0B58EB000840F100008F1A4FF00001D1
:102190003CBFC943661B14BFB5EB040C00213CBF18
:1021A000C943F61B4FEA17444EEA8E0E27EA044550
:1021B0004FEA1C4704FB07622CEA074C05FB07F7B4
:1021C0000CFB05F604FB0CFC16EB074642EB174232
:1021D00016EB0C4642EB1C421BEB060658EB0202C8
:1021E000414146EA9E0601D5BDE80189B619524132
:1021F00041EB0101A3F10103BDE801894FEA144558
:102200004FEA114724EA054621EA074C05FB07F48B
:1022100006FB07F70CFB06F105FB0CFC11EB074175
:1022200044EB17444FEA124711EB0C4144EB1C44BA
:1022300022EA074C05FB07F206FB07F70CFB06F644
:1022400005FB0CFC16EB074642EB174216EB0C465F
:1022500042EB1C456A1854F1000148BF7047B6199B
:10226000524141EB0101A3F10103704795F0000FCA
:1022700037D04FEA11424FEA144721EA024624EAD6
:10228000074C02FB07F106FB07F70CFB06F402FB09
:102290000CFC14EB074441EB17414FEA154714EBD4
:1022A0000C4441EB1C4125EA074C02FB07F506FBF9
:1022B00007F70CFB06F602FB0CFC16EB074645EB9A
:1022C000174516EB0C4645EB1C42121951F1000163
:1022D00048BF7047B619524141EB0101A3F1010318
:1022E00070474FEA14454FEA114724EA054621EAB0
:1022F000074C05FB07F106FB07F70CFB06F24FF056
:10230000000605FB0CFC12EB074241EB174112EBF8
:102310000C4251EB1C4148BF7047921841EB010140
:10232000A3F101037047FEE770470000044801680D
:10233000C90704D001210160084600F011BA7047B6
:102340001404014004480168890704D50221016092
:10235000084600F005BA70471404014004480168BB
:10236000490704D504210160084600F0F9B9704717
:102370001404014004480168090704D508210160DC
:10238000084600F0EDB970471404014010B5094C3F
:102390002068400603D54020206000F0E1F9206865
:1023A000000605D580202060BDE8104000F0D8B9B7
:1023B00010BD0000140401402DE9F04700F068FB57
:1023C0000025394F0646A8466FF00E094FF47A7A79
:1023D00007EB45142069311AFA295FD3E269606975
:1023E000C4E90462101AA269B21AB2F5AF7F17D815
:1023F000B0B147F230525043B0FBF1F06080218819
:1024000091B1C8006422B0FBF2F082B23C2A00D243
:102410003C226088401A00D54042904207DC08E028
:102420004046A4F80280EAE70004000C01D0002036
:1024300000E00120E071A07978BB29B1608840B14B
:10244000081A10D401460FE0A4F80480E8B2002175
:1024500006E0084601F0E8FEA080EAB20146104618
:1024600001F0C2FE1AE04142322917DD232190FB20
:10247000F1F00F2801DD0F2002E0484500DA484660
:10248000A1880844504501DD504602E0322800DAB8
:10249000322081B2A180E8B2E2E7FFE76D1C062D91
:1024A00096DBBDE8F087000054010020411E05299D
:1024B00005D8044901EB401030F81C0C704700208F
:1024C0007047000054010020014800787047000068
:1024D00000000020411E052905D8044901EB4010E9
:1024E00050F8040C70470020704700005401002091
:1024F000411E052905D8044901EB401030F81E0C97
:10250000704700207047000054010020411E05293B
:1025100005D8044901EB401030F8200C704700202A
:1025200070470000540100200649002001EB4012D2
:10253000528822B1401C0628F8DB00207047012099
:1025400070470000540100202DE9F043054667481C
:102550008FB00024C0E9015165480E460C94816992
:1025600041F004018161816901F0040100918169F8
:1025700041F008018161816901F0080100918169E0
:1025800041F001018161806909A900F0010000901A
:10259000CC20584F4FF0010881E88101564800F0E7
:1025A00081F909A9032081E88101544800F07AF9F2
:1025B00000220221062000F0D7FA062000F0C6FA19
:1025C00000220221072000F0CFFA072000F0BEFA17
:1025D00000220221082000F0C7FA082000F0B6FA15
:1025E00000220221092000F0BFFA092000F0AEFA13
:1025F00000220221172000F0B7FA172000F0A6FAF7
:102600001C2101A8FDF7A9FF6020CDE901040220EB
:1026100005940694CDE90304079428688462286829
:1026200040F63F37C762002201A9284600F0DCFED1
:10263000042201A9284600F0D7FE082201A9284655
:1026400000F0D2FE0C2201A9284600F0CDFE306831
:1026500084623068C762002201A9304600F0C4FEDF
:10266000042201A9304600F0BFFE0021284600F0F8
:1026700085FF0421284600F081FF0821284600F04C
:102680007DFF0C21284600F079FF2868416C41F459
:10269000004141640021304600F070FF04213046C3
:1026A00000F06CFF00F0F4F9154F064600254FF0DE
:1026B000C8094FF0640800BF07EB45104146A0F879
:1026C00000904480A0F804808471C4718460848187
:1026D000C0E90464C0E90664E8B201F085FD6D1C40
:1026E000062DE9DB0FB0BDE8F083000000000020FC
:1026F000001002400000211000080140000C0140C1
:10270000540100200648C17939B190F8271021B151
:1027100090F8470008B10120704700207047000082
:1027200054010020064890F8671039B190F88710DE
:1027300021B190F8A70008B1012070470020704730
:1027400054010020411E052905D8044901EB401021
:1027500010F8190C70470020704700005401002049
:1027600010B5042814D0082814D0402814D080288C
:1027700014D0012814D0022809D10520094901EB01
:102780004014E069401CE06100F082F9A06110BDD6
:102790000020F3E70120F1E70220EFE70320EDE757
:1027A0000420EBE75401002070B5054601242946BA
:1027B000204600F03DF8641CE4B2062CF7D970BD49
:1027C00070B50D4690B1062819D8401E0C49C0B20C
:1027D00001EB401201234FF47A7193718D4200D8BE
:1027E00029469180BDE8704001F0FEBC01242946D5
:1027F0002046FFF7E5FF641CE4B2062CF7D970BD54
:102800005401002070B500B101200749074D002494
:10281000087000BF05EB44108188E0B201F0E4FCD1
:10282000641C062CF6DB70BD000000205401002063
:1028300070B5A8B106281BD8401EC5B20D4800EBE4
:10284000451400202180A071A06071B1084601F0FC
:10285000EBFCA08001462846BDE8704001F0C4BCF6
:10286000BDE870400846FFF79FBFA0800021F2E757
:1028700070BD0000540100200021FFF7D9BF000007
:1028800070B5044600F004F90546601C02D0044807
:102890000078044400F0FCF8401BA042FAD370BD5D
:1028A000240000202DE9F84FDFF8B8910024A9F1A9
:1028B000040B23460F2709F1040AABF1040EC9E00B
:1028C0000125A5402A40AA427DD1674ED1F804C017
:1028D000ACEB0608B44532D014DCBCF1030F3AD09F
:1028E00009DCBCF1000F2AD0BCF1010F1CD0BCF1F7
:1028F000020F31D11DE0BCF1110F17D0BCF1120F46
:102900002AD119E0B8F5881F19D006DCB8F5803F48
:1029100015D0B8F5801F1FD111E0B8F5001F0ED0FB
:10292000B8F5041F18D10AE0CB6815E0CB681B1D71
:1029300012E0CB6808330FE0CB680C330CE08B68F7
:102940002BB1012B4FF0080303D0456104E00423B1
:1029500002E0056100E00023FF2A01D8064601E0FD
:1029600000F104064FEA840501D9A5F12005D6F847
:10297000008007FA05FC28EA0C0803FA05F548EA86
:102980000508C6F800804D68ED0062D5374DAE6988
:1029900046F00106AE61AD6924F0030605F00105BD
:1029A0000095334D06EB050CDCF80850A607360FF2
:1029B00007FA06F825EA0805DFF8B880404503D194
:1029C0004FF0000817E044E0DFF8AC80404502D14A
:1029D0004FF001080FE0DFF8A480404502D14FF02E
:1029E000020808E0DFF89880404502D14FF0030864
:1029F00001E04FF0040808FA06F848EA0508CCF8A8
:102A000008804D68D9F80060ED024D4601D51643A7
:102A100000E096432E604D68DAF80060AD0255463E
:102A200001D5164300E096432E604D68DBF8006048
:102A3000AD035D4601D5164300E096432E604D6818
:102A4000DEF80060ED03754601D5164300E09643BD
:102A50002E60641C0D682A46E5407FF431AFBDE866
:102A6000F88F00000804014000001110001002401F
:102A70000000014000080140000C0140001001402E
:102A8000001401400AB1016170470904FBE700002E
:102A900001488068704700002400002002488168D7
:102AA000027811448160704724000020074810B567
:102AB000016841F010010160032000F075F80F205B
:102AC00000F006F800F024F8002010BD00200240BD
:102AD00070B50D4D04464FF47A712878B1FBF0F0D3
:102AE0000A490968B1FBF0F000F0DCFA48B9102C93
:102AF00007D200222146501E00F036F800206C60FC
:102B000070BD012070BD00002400002030000020B6
:102B10000C4808B5816941F001018161816901F0CA
:102B200001010091C16941F08051C161C06900F0AB
:102B3000805000900448416821F0E06141F000714C
:102B4000416008BD0010024000000140002809DB80
:102B500000F01F02012191404009800000F1E020B7
:102B6000C0F8001170470000F0B40E4B1B680C4613
:102B7000C3F30223C3F10705042D00D90425191D51
:102B8000072901D2002300E0DB1E012606FA05F129
:102B9000491E214099409E40761E16403143F0BCAC
:102BA00001F00BBB0CED00E0064900F007020868DD
:102BB0004FF6FF03184040EA0220034A1043086022
:102BC000704700000CED00E00000FA052DE9F04729
:102BD0000F46050061D0434E306800F00700B84250
:102BE00009D2306820F0070038433060306800F0C8
:102BF0000700B84251D128683B4C810712D54007E5
:102C000003D5606840F4E06060602878000703D571
:102C1000606840F4605060606068A96820F0F0006F
:102C2000084360602878C00728D06868012810D061
:102C30002168022810D0890700292EDA616821F066
:102C4000030101436160FFF723FF804641F28839A9
:102C50000DE021688903EFE78901EDE7FFF718FF31
:102C6000A0EB0801494502D90320BDE8F087606860
:102C7000696800F00C00B0EB810FEFD1306800F014
:102C80000700B8420BD9306820F0070038433060A5
:102C9000306800F00700B84201D00120E5E728784D
:102CA000400705D56068E96820F4E060084360608B
:102CB0002878000706D56068296920F4605040EA4A
:102CC000C100606000F038F86168084AC1F3031180
:102CD000515CC8400649086006480068FFF7F8FEE6
:102CE0000020C2E70020024000100240A64D00086C
:102CF0003000002028000020044805490068496889
:102D0000044AC1F30221515CC840704730000020E2
:102D100000100240B64D00080448054900684968A3
:102D2000044AC1F3C221515CC84070473000002002
:102D300000100240B64D00080E4A51680E4801F0DE
:102D40000C03042B11D0082B0FD10C48C1F3834383
:102D5000C903C05C0AD55168084AC1F34041921EBC
:102D6000515C054A5043B0FBF1F0704704494843B9
:102D7000704700000010024000127A00964D0008D3
:102D800000093D002DE9F84F040070D02078C04DB7
:102D9000C00749D06868C0F38100012807D068687F
:102DA000C0F38100022809D16868C00306D52868ED
:102DB000800339D560680028E7D035E06068B0F559
:102DC000803F0BD010B1B0F5A02F11D0286820F4AF
:102DD00080302860286820F4802002E0286840F4D1
:102DE00080302860606890B1FFF752FE06460AE026
:102DF000286840F480202860F0E700BFFFF748FE15
:102E0000801B642873D828688003F7D50CE0FFF78F
:102E10003FFE064605E000BFFFF73AFE801B642830
:102E2000F0D828688003F7D420789A4E80074FF0B6
:102E300001094FF0000839D5686810F00C0F07D071
:102E40006868C0F38100022809D16868C00306D40D
:102E50002868800714D52069012808D110E020696E
:102E6000B0B1C6F80090FFF713FE074605E00AE18F
:102E7000FFF70EFEC01B0228C4D828688007F7D5CC
:102E80002868616920F0F80040EAC10028600DE080
:102E9000C6F80080FFF7FCFD074604E0FFF7F8FDE9
:102EA000C01B022823D828688007F7D420780007A1
:102EB0002CD57948A169D9B1C0F80090FFF7E8FD99
:102EC000074604E0FFF7E4FDC01B02280FD8686A3C
:102ED0008007F7D571484FF4FA510068B0FBF1F064
:102EE000009000BF0098411E0091FAD20EE080E0F1
:102EF000C0F80080FFF7CCFD074604E0FFF7C8FDEF
:102F0000C01B022875D8686A8007F7D4207840076C
:102F100060D5E8690027C00008D4E86940F0805017
:102F2000E861E869012700F0805000905C48016882
:102F3000C90513D40168834641F480710160FFF72D
:102F4000A7FD824606E000BFFFF7A2FDA0EB0A0046
:102F500064284ED8DBF80000C005F5D5E0680128EC
:102F60000AD008B1052813D0286A20F00100286291
:102F7000286A20F0040002E0286A40F0010028627C
:102F8000E06841F2883B98B1FFF782FD82460BE092
:102F9000286A40F004002862EEE700BFFFF778FDE2
:102FA000A0EB0A0159455AD8286A8007F6D50CE0EB
:102FB000FFF76EFD824605E0FFF76AFDA0EB0A0110
:102FC00059454CD8286A8007F6D41FB1E86920F02B
:102FD0008050E861E06988B36968C1F38101022922
:102FE00044D00228C6F8608004D0FFF751FD0446A3
:102FF00038E034E0FFF74CFD074604E0FFF748FDFA
:10300000C01B02282BD828688001F7D4206AB0F5AD
:10301000803F05D16868A16820F4003008436860EB
:10302000D4E908010843696821F474110843686011
:10303000C6F86090FFF72CFD044606E025E000BFCF
:10304000FFF726FD001B022809D828688001F7D564
:103050001BE000BFFFF71CFD001B022802D9032064
:10306000BDE8F88F28688001F4D40EE00128F7D07D
:103070006868226A00F48031914204D1616A00F4E8
:103080007010884201D00120EAE70020E8E7000044
:103090000010024000004242800442423000002002
:1030A0000070004010B5401EB0F1807F01D30120B8
:1030B00010BD4FF0E02460610F21601701F07DF832
:1030C0000020A06107202061002010BD10B590F8FD
:1030D0003C20012A22D0012280F83C20CA688C685A
:1030E00022F4407222434C6822F4806222430C682E
:1030F00022F4006222430C6922F4805222434C697C
:1031000022F400522243C969002322F480420A4378
:1031100001684A6480F83C30002010BD022010BDD8
:1031200070B590F83C20012A26D0012480F83C405C
:10313000022280F83D2003685A689D6822F07006DC
:103140000A6832435A600D4B02689A4208D0B2F1C5
:10315000804F05D00A4B9A4202D00A4B9A4204D1C2
:10316000496825F080031943916080F83D400021B3
:1031700080F83C10084670BD022070BD002C014054
:1031800000040040000800402DE9F041054690F899
:103190003C0000260C46012810D0012085F83C0098
:1031A00072B1042A1CD0082A2CD00C2A50D0012637
:1031B000002085F83C003046BDE8F0810220FBE7A6
:1031C000D4E90012E368286800F024FE28688169C9
:1031D00021F00C01816128688169A26811430FE028
:1031E000D4E90012E368286800F040FE286881698D
:1031F00021F44061816128688169A26841EA022165
:103200008161D5E72868D4E9002C277B036A016A2D
:1032100021F480710162C16923F4007321F003017C
:1032200041EA0C0121F0F00C39074FF400774CEA29
:10323000116107EA02221A43C16102622868C1696A
:1032400021F00C01C1612868C169A26811432BE01B
:103250002868D4E90021E768036AD0F820C02CF47C
:10326000805CC0F820C0D0F81CC023F400532CF4BC
:10327000407C4CEA012121F4704C4FF6FF7101EAC9
:1032800007314FF4005741EA0C0107EA02321A43B2
:10329000C16102622868C16921F44061C161286886
:1032A000C169A26841EA0221C16181E710B5040049
:1032B00003D094F83D0010B107E0012010BD0020BC
:1032C00084F83C00204600F01FF8022084F83D00FE
:1032D000211D206800F0B2FC012084F8460084F82B
:1032E0003E0084F83F0084F8400084F8410084F8F0
:1032F000420084F8430084F8440084F8450084F8D0
:103300003D00002010BD000010B586B000240094E0
:1033100001940294039400681549884226D1154807
:10332000C16941F00201C161C16901F0020104916A
:10333000816941F004018161816901F00401049116
:10334000816941F0080181618069694600F00800E7
:103350000490C02000900848FFF7A4FA0320CDE9AC
:103360000004694605480294FFF79CFA06B010BDB8
:10337000000400400010024000080140000C014021
:1033800010B586B000210091019102910391134C78
:103390000368134902221348A3420AD18B6943F000
:1033A00004038B61896901F0040104914FF4706199
:1033B0000BE0B3F1804F0ED18B6943F004038B61B6
:1033C000896901F0040104910321CDE900126946E5
:1033D0000392FFF767FA06B010BD0000002C014011
:1033E000001002400008014070B5044690F83C000F
:1033F00000260D4601280FD0012084F83C006AB158
:10340000042A1DD0082A2FD00C2A3FD001260020E4
:1034100084F83C00304670BD022070BD206800F08A
:1034200057FC2068816941F0080181612068816949
:1034300021F004018161206881692A69114311E04A
:10344000206800F06DFC2068816941F400618161B1
:103450002068816921F480618161206881692A691D
:1034600041EA02218161D2E7206800F085FC2068F2
:10347000C16941F00801C1612068C16921F00401FE
:10348000C1612068C1692A69114311E0206800F018
:103490009FFC2068C16941F40061C1612068C16975
:1034A00021F48061C1612068C1692A6941EA022171
:1034B000C161ACE710B5040003D094F83D0010B131
:1034C00007E0012010BD002084F83C00204600F0F9
:1034D0001FF8022084F83D00211D206800F0AEFB9B
:1034E000012084F8460084F83E0084F83F0084F808
:1034F000400084F8410084F8420084F8430084F8D6
:10350000440084F8450084F83D00002010BD000010
:1035100000B585B000210091019102910391144AF8
:1035200001681448914209D1816941F400618161C7
:10353000806900F40060049005B000BDB1F1804FD7
:10354000FAD1C16941F00101C161C16901F0010114
:103550000491816941F0040181618069694600F04C
:10356000040004900C2000900348FFF79BF9E3E768
:10357000002C0140001002400008014010B5044634
:10358000022249B104290ED0082913D094F8410031
:10359000012816D0012010BD94F83E000128F9D171
:1035A00084F83E200FE094F83F000128F2D184F81F
:1035B0003F2008E094F840000128EBD184F8402037
:1035C00001E084F841200122206800F073FB0F49DC
:1035D0002068884203D1426C42F400424264206871
:1035E000884208D0B0F1804F05D00949884202D006
:1035F0000849884204D1816801F00701062903D0F7
:10360000016841F001010160002010BD002C014063
:10361000000400400008004070B5040004D094F895
:103620004100002510B106E0012070BD84F8405033
:10363000204600F023F8242084F841002068C16867
:1036400021F40051C160204600F052FC206801695D
:1036500021F4904101612068416921F02A01416112
:103660002068C16841F40051C1606564202084F87D
:10367000410084F842006563002070BD30B585B01C
:103680000024009401940294039400681C49884229
:1036900033D11C48816941F480418161816901F421
:1036A00080410491816941F0080181618069164D72
:1036B00000F00800049040200090022001900320B8
:1036C000039069462846FFF7EDF88020CDE9000415
:1036D0000120029069462846FFF7E4F80B4841684C
:1036E00041F0E06141F00401416000220121252008
:1036F000FFF73AFA2520FFF729FA05B030BD0000A0
:103700000038014000100240000C01400000014060
:103710002DE9F843044690F84100984616460D46B8
:10372000202802D00220BDE8F88385B17EB10020B8
:103730006064212084F84100FFF7AAF9A68481463D
:10374000E684A0682027B0F5805F02D003E0012066
:10375000E9E7206910B12E4600250EE000260CE0B6
:103760008021204600F020FCA8B9C6B116F8010B54
:1037700021684860E08C401EE084E08C4B464FF0AE
:103780000002CDF800800028EAD14FF04001204629
:1037900000F00AFC40B184F841700320C3E735F81B
:1037A000020BC0F30800E3E784F841700020BAE799
:1037B000FEE7000030B585B000241748009401945E
:1037C00002940394816941F001018161816901F0F2
:1037D00001010491816941F008018161806900F073
:1037E000080004900D48416821F0E06141F000714B
:1037F00041600B4D002238212846FFF743F938205D
:1038000000900120CDE9010402200390694628467A
:10381000FFF748F805B030BD00100240000001403D
:10382000000C01400649074B887030B1012806D1D1
:10383000012220211846FFF725B90022F9E7704739
:103840000C000020000C01400649074B087030B105
:10385000012806D1012208211846FFF713B90022DA
:10386000F9E770470C000020000C01400649074BA7
:10387000487030B1012806D1012210211846FFF707
:1038800001B90022F9E770470C000020000C01404C
:1038900070B514460D4608B1012000E00220FFF784
:1038A000D3FF0DB1012000E00220FFF7DFFF0CB1D4
:1038B000022000E00020BDE87040FFF7B3BF000029
:1038C00070B5FFF7E5F81A4C6168411AFA292DD353
:1038D0006060E07830B10020E0702178154D022959
:1038E00002D009E00120F7E708B1012200E0002240
:1038F00008212846FFF7C6F86078022808D1E0784A
:1039000008B1012200E0002210212846FFF7BAF892
:10391000A07802280AD1E07808B1012200E0002254
:103920002846BDE870402021FFF7ACB870BD00000C
:103930000C000020000C014030B585B00024184870
:103940000094019402940394816941F02001816103
:10395000816901F020010491816941F004018161D4
:10396000816901F004010491816941F008018161DC
:1039700080690C4D00F00800049000223821284690
:10398000FFF780F8382000900120CDE901040220E3
:10399000039069462846FEF785FF05B030BD00005C
:1039A00000100240000C014010B592B000240F94AA
:1039B0001C2168461094FCF7D0FD202107A8FCF7D5
:1039C000CCFD2C482A49C0E900144FF6FF71C0E92C
:1039D0000241046144618461FFF76CFD08B172B675
:1039E000FEE70F940FA923481094FFF799FB08B145
:1039F00072B6FEE76020CDE90004029403940494BB
:103A00000594002269461B480694FFF7EDFC08B1B7
:103A100072B6FEE7042269461648FFF7E5FC08B1D6
:103A200072B6FEE7082269461248FFF7DDFC08B1CE
:103A300072B6FEE70C2269460E48FFF7D5FC08B1C6
:103A400072B6FEE70794089409944FF400500A9464
:103A5000CDE90B4007A907480E94FFF737FB08B1E3
:103A600072B6FEE70348FFF78BFC12B010BD0000F2
:103A7000002C01403400002010B58EB000240B94BF
:103A80001C2168460C94FCF768FD294807940894AB
:103A900009944FF080410A94C0E900144FF6FF7179
:103AA000C0E9024104618461FFF704FD08B172B608
:103AB000FEE71F48FFF7FAFB08B172B6FEE70B946A
:103AC0000BA91B480C94FFF72BFB08B172B6FEE75D
:103AD0006020CDE900040294002269461448049451
:103AE000FFF782FC08B172B6FEE70422694610486F
:103AF000FFF77AFC08B172B6FEE70120CDE9074076
:103B00000994082207A90A480A94FFF73DFB08B167
:103B100072B6FEE70C2207A90548FFF735FB08B18E
:103B200072B6FEE70248FFF72BFC0EB010BD000096
:103B30007C00002010B586B000242448059404942D
:103B400000940194029420490394C0E900144FF6B4
:103B5000FF71C0E9024104618461FFF7A7FB08B16E
:103B600072B6FEE7049404A918480594FFF7D8FA42
:103B700008B172B6FEE70120CDE9004002940022B0
:103B8000694612480394FFF7FFFA08B172B6FEE7E0
:103B9000042269460D48FFF7F7FA08B172B6FEE74E
:103BA000082269460948FFF7EFFA08B172B6FEE746
:103BB0000C2269460548FFF7E7FA002801D072B6E3
:103BC000FEE706B010BD000000040040C400002065
:103BD000FEE7FEE770477047FEF760BF30B58FB075
:103BE00028216846FCF7B9FC14210AA8FCF7B5FCAB
:103BF00001210804CDE9001000240294022504915B
:103C0000CDE907504FF4E01009906846FFF7BAF885
:103C100008B172B6FEE70F20CDE90A054FF48060C7
:103C2000CDE90C4002210AA80E94FEF7CFFF002830
:103C300001D072B6FEE70FB030BD7047F0B5026834
:103C4000194B1A4C1A4D4FF08047984205D0B84294
:103C500003D0A04201D0A84203D122F070064A68E6
:103C60003243984205D0B84203D0A04201D0A842C6
:103C700003D122F44074CA6822434C6922F08002C6
:103C8000224302608A68C2620A688262984201D155
:103C900009690163012141610169C90703D0016913
:103CA00021F001010161F0BD002C01400004004041
:103CB0000008004010B501F01F030121046A99407B
:103CC0008C430462016A9A401143016210BD0000F6
:103CD00030B5036A026A22F0010202624268846916
:103CE00024F073050C682C4323F002058B682B43EA
:103CF0000A4DA8420BD123F00805CB6822F440728C
:103D00002B434D6923F0040315438A692A4342601B
:103D1000846149684163036230BD0000002C0140AA
:103D200030B5026A036A23F01003036243688469B2
:103D30000D6824F4E64444EA05248D6822F020024C
:103D400042EA05120B4DA8420ED1CD6822F0800246
:103D500042EA05124D6923F4406343EA85038D6905
:103D600022F0400243EA850343608461496881632D
:103D7000026230BD002C014030B5036A026A22F4B1
:103D8000807202624268C46923F4007324F07305F0
:103D90000C682C438D6843EA05230C4DA8420ED1D4
:103DA000CD6823F4006343EA05234D6922F44052B1
:103DB00042EA05128D6923F4806342EA05124260EB
:103DC000C4614968C163036230BD0000002C01403A
:103DD00030B5046A026A22F4805202624268C36902
:103DE0000D6823F4E64343EA05238D6824F4005468
:103DF00044EA0534064DA84204D14D6922F48042BC
:103E000042EA85124260C36149680164046230BDC0
:103E1000002C014070B5056A046A24F001040462B4
:103E200084690F4EB04208D0B0F1804F05D00D4EDE
:103E3000B04202D00C4EB04203D124F0030414432C
:103E400001E044F001041A0724F0F00444EA12628D
:103E500025F00A0301F00A0119438261016270BD75
:103E6000002C0140000400400008004030B5046A06
:103E7000056A25F010050562856925F4407545EA57
:103E8000022222F470454FF6FF7202EA033224F058
:103E9000A0032A43A02404EA0111194382610162AC
:103EA00030BD01680C3151E8002F22F4907241E8D6
:103EB0000023002BF5D10168143151E8002F22F0C6
:103EC000010241E80023002BF5D1016B012909D142
:103ED00001680C3151E8002F22F0100241E8002364
:103EE000002BF5D1202180F842100021016370479A
:103EF00070B5044600680169E26821F4405111433D
:103F000001612169A0680843616908432168CA68A2
:103F100041F20C639A430243CA6020684169A26976
:103F200021F44071114341611E492068884202D149
:103F3000FEF7F2FE01E0FEF7DFFE00EBC00101EB51
:103F40000012606864218000B2FBF0F3B3FBF1F370
:103F50006FF018067343B2FBF0F5B2FBF0F605EB19
:103F60008305322303EB0515B5FBF1F5B6FBF1F63E
:103F700005F0F00505EB0615B2FBF0F6B2FBF0F02C
:103F8000B0FBF1F06FF01802504306EB800003EB3A
:103F90000010B0FBF1F0216800F00F0028448860A9
:103FA00070BD0000003801402DE9F84398461746DF
:103FB0000D460446089E24E0701C22D0FEF768FDE2
:103FC000A0EB0800B0421AD8CEB12068C1684907FA
:103FD00017D5802D15D0402D13D00168C94309078E
:103FE0000FD401680025406800902046FFF759FF74
:103FF0000820606484F840500120BDE8F883032065
:10400000FBE72068006835EA000004D00020B842D1
:10401000D2D00020F1E70120F9E7000038B5074DC4
:1040200028680468A10603D54068C0B200F022F8F1
:10403000200702D528684068009038BD0C01002098
:1040400010B50B4C6060002020706070FEF720FD02
:10405000E060002201212520FEF786FD2520FEF7E5
:1040600075FD60680068C16841F02001C16010BD45
:104070001400002010B50446FEF70AFD0C498860C4
:10408000487800280AD10B480D2C08D00A2C06D0FD
:104090000A787F2A02D28454521C0A7010BD0A7812
:1040A000002AFBD0002383540120487010BD00007B
:1040B00014000020140200202DE9FE43FEF7E8FC66
:1040C0001E4C05466078002648B9207838B1A168B2
:1040D000691A3C2903D31A490E5401206070607894
:1040E00020B1174800F00EF926706670E068281AB3
:1040F000B0F5FA7F1FD30620E560FEF7F9F9804698
:104100000520FEF7F5F907460420FEF7F1F906460B
:104110000320FEF7EDF905460220FEF7E9F9044613
:104120000120FEF7E5F98DE8C00101462B46224645
:1041300004A000F011F8BDE8FE8300001400002088
:104140001402002025752C25752C25752C25752C21
:1041500025752C25750D0A000FB4C02110B5B0B01F
:1041600033AB6846329AFCF79DF8002809DD074911
:104170004C68002C05D082B2642369462046FFF7C4
:10418000C7FA30B010BC5DF814FB0000140000202A
:10419000FEE7490050EAC12018BF04204A0D18BFAD
:1041A00040F0010040F2FF72B2EB515F08BF40F0F7
:1041B0000200012808BF052070470907090E0028E2
:1041C00004DB00F1E02080F80014704700F00F00DD
:1041D00000F1E02080F8141D704730380A2801D221
:1041E0000120704700207047062819D24FF47A73D7
:1041F000994200D919460B4A12780AB1C1F57A7171
:104200008AB200219A4202D34FF4346106E02AB107
:1042100040F63F314A43B2FBF3F189B200F01ABCD9
:104220007047000000000020002803D0B0F5487F50
:1042300001D89620704740F25231A0F548704843AB
:1042400040F6C41190FBF1F04FF47A719630884239
:1042500001DD084602E0962800DA962080B2704719
:10426000FEF724FCFFF7BAFCFFF766FBFFF79CFBA9
:10427000FFF702FCFFF75EFC214820490C22016099
:104280004FF4E131416000218160C160C0E9041256
:104290008161C161FFF7C0F908B172B6FEE74FF462
:1042A0009670FEF7EDFAFFF785FA15499039A1F1FE
:1042B0004800FEF749F91248FFF7C2FE00263546CE
:1042C000FEF7E6FB0446801B322802D32646FEF7A3
:1042D00073F8601B32280ED32546FEF725F90746F2
:1042E000FEF720FA0446FEF70DFA3A462146FFF79C
:1042F000CFFAFFF7E5FAFFF7DFFEE1E7003801400C
:104300000C0100202DE9F0418CB0054600E06D1C49
:1043100028782028FBD00928F9D010F0FF0F49D0C9
:10432000002401940294039426460DF10408049499
:1043300006E03846FBF7A6FF08F806006D1C761C61
:104340002F783FB1FBF796FF0068C05DC00701D131
:104350000F2EEEDB08F8064092A101A8FCF724F925
:1043600000282AD090A101A8FCF71EF9002862D0ED
:104370008FA101A8FCF718F900286AD08EA101A826
:10438000FCF712F9002877D08EA101A8FCF70CF9F0
:10439000002872D08DA101A8FCF706F90028F8D0FA
:1043A0008BA101A8FCF700F9002867D001A98AA019
:1043B000FFF7D2FE0CB0BDE8F08105940694079497
:1043C00008946B4605AA93A128460094FBF784FF46
:1043D000022801D091483EE005AD03E0FBF752FF13
:1043E00005F8010B28780028F8D10098002801DA98
:1043F000009404E041F66411884200DD009188A138
:1044000005A8FCF7D1F878B105A8FCF799F804469F
:10441000401E05285BD8009881B2E0B2FEF708FA8A
:10442000214680A0009A48E0009880B2FEF7BCF9CF
:1044300085A00099BCE705940694079408946B4600
:1044400005AA74A128460094FBF746FF022805D070
:1044500000E03FE085A0FFF77FFEABE705AD03E09E
:10446000FBF710FF05F8010B28780028F8D1009819
:10447000002804DA009406E05DE08DE08FE0642817
:1044800001DD6420009000984FF6FF7100EB800082
:1044900001EA400562A105A8FCF786F880B105A8ED
:1044A000FCF74EF80446401E052810D8E0B2294615
:1044B000FEF786F921467BA0009AFFF74DFE79E7CB
:1044C00029460020FEF77CF97EA0009970E705A937
:1044D00084A06DE705940694079405AA8DA128464B
:1044E0000894FBF7F9FE012801D08CA0B3E705ACD6
:1044F00004E000BFFBF7C6FE04F8010B207800289B
:10450000F8D147A105A8FCF74FF860B105A8FCF762
:1045100017F80446401E05280AD8E0B2FEF7ACF9A9
:10452000214686A044E70020FEF7A6F989A092E77D
:1045300005A98EA03CE705940694079405AA75A1E9
:1045400028460894FBF7C8FE012804D0FDF7BCFFFD
:10455000F8B18DA11EE005AC04E000BFFBF792FEB0
:1045600004F8010B20780028F8D18AA105A8FCF7EF
:104570001BF848B189A105A8FCF716F820B1002066
:10458000FEF740F986A066E70120FEF73BF993A00D
:1045900061E79FA1A0A00BE700F0ACF90AE700F0EB
:1045A0005BF907E753455400445554590000000097
:1045B00053544F5000000000504F4C415249545941
:1045C0000000000053544154555300004745540027
:1045D00048454C50000000004552523A20556E6B41
:1045E0006E6F776E20636F6D6D616E64202725732B
:1045F000272E2054797065202748454C5027206687
:104600006F7220636F6D6D616E64206C6973742EC0
:104610000D0A00002531357320256400085000087C
:10462000414C4C004F4B3A2046616E20256420746B
:1046300061726765742073657420746F202564202F
:1046400052504D0D0A0000004F4B3A20416C6C2037
:1046500066616E732074617267657420736574207F
:10466000746F2025642052504D0D0A004552523A75
:104670002055736167653A2044555459203C666162
:104680006E5F69643E203C307E3130303E202865CC
:104690002E672E20445554592031203735290D0AD4
:1046A000000000004F4B3A2046616E2025642064D4
:1046B0007574792073657420746F20256425250D29
:1046C0000A0000004F4B3A20416C6C2066616E730B
:1046D00020647574792073657420746F20256425B7
:1046E000250D0A004552523A20496E76616C696484
:1046F0002066616E20494420257320284D7573740F
:1047000020626520317E36206F7220414C4C290D8D
:104710000A00000025313573000000004552523A6E
:104720002055736167653A2053544F50203C6661B1
:104730006E5F69647C414C4C3E0D0A004F4B3A2041
:1047400046616E2025642073746F707065640D0A75
:10475000000000004F4B3A20416C6C2066616E7384
:104760002073746F707065640D0A00004552523AF0
:1047700020496E76616C69642066616E2049442030
:1047800025730D0A0000000052455645525345441A
:1047900000000000494E5645525400005245560054
:1047A0004F4B3A2050574D20506F6C6172697479AD
:1047B0002073657420746F204E4F524D414C202859
:1047C000533830353020496E766572746564204FF9
:1047D0007574707574290D0A000000004F4B3A2063
:1047E00050574D20506F6C617269747920736574F5
:1047F00020746F2052455645525345442028446941
:1048000072656374206F7574707574290D0A0000E9
:104810004E4F524D414C000043757272656E7420CC
:1048200050574D20506F6C61726974793A2025732E
:10483000202855736167653A20504F4C41524954C6
:1048400059203C4E4F524D414C7C494E5645525496
:104850003E290D0A0000000010B50BA0FFF77CFCFC
:104860001148FFF779FC1148FFF776FC1048FFF775
:1048700073FC1048FFF770FC0F48FFF76DFCBDE8B4
:1048800010400EA0FFF768BC0D0A2D2D2D2053758A
:1048900070706F7274656420436F6D6D616E6473C8
:1048A000202D2D2D0D0A0000144F0008684F000820
:1048B0004C500008C44F0008DC50000820362E2061
:1048C00048454C502020202020202020202020203F
:1048D000202020203A20446973706C61792074682C
:1048E00069732068656C70206D6573736167650D11
:1048F0000A0D0A002DE9FF4728A0FFF72DFCDFF87D
:10490000C0A001242046FDF71DFF08B12DA600E040
:104910002DA62046FDF7DEFD81462046FDF7C6FDAB
:1049200000F0D6F9514600F011F900F0E3F807461F
:104930000D462046FDF7EAFD80462046FDF7D8FDEE
:10494000CDE90075CDE902960246434621461F484F
:10495000FFF702FC641CE4B2062CD3D9FDF7B4FDCA
:1049600008B11BA400E01DA4FDF7DEFD08B11DA6E3
:1049700000E021A6FDF7D6FE08B123A500E026A59C
:10498000FDF7C0FE08B129A100E02CA133462A465C
:104990002F480094FFF7E0FBBDE8FF870D0A2D2D9F
:1049A0002D20436F6F6C657248442046616E205421
:1049B000656C656D65747279202D2D2D0D0A0000D2
:1049C00000002041594553004E4F0000945000080C
:1049D0005245564552534544000000004E4F524D3B
:1049E000414C000059455320284552524F52204215
:1049F0004C494E4B290000004E4F20284552524F43
:104A000052204F464629000059455320285354410F
:104A1000544532204F4E29004E4F202853544154C4
:104A2000453220424C494E4B290000005945532045
:104A300028535441544531204F4E29004E4F2028D1
:104A400053544154453120424C494E4B29000000FB
:104A5000BC4E00080D4B10B5D3E9012306280AD23D
:104A6000DFE800F00305070A0D10106808E0106881
:104A700009E01068C16310BD1068016410BD1868BA
:104A8000416310BD1868816310BD00000000002064
:104A900010B500290AD00878002807D005487844C6
:104AA000FBF782FD002801D0002010BD02487844A9
:104AB00010BD0000A20600009A06000010B50029F3
:104AC0000AD00878002807D005487844FBF76CFD29
:104AD000002801D0002010BD0248784410BD00001D
:104AE000860700007E0700000808A0F500114FEAC5
:104AF0003101704743004FEAD30C4FEA3C0C43406E
:104B00001FBF40070CF1605113F0FE4F70471CF0BF
:104B1000006F03D100200CF0004170470CF00043FF
:104B200043EA507010B540EACC0000F0E4F800BF52
:104B3000000000924FEA0001FFF7D6BF4FF000419E
:104B40004FF00000A1F50021704700004FF47F0CEA
:104B50001CEAD0121EBF1CEAD11392EA0C0F93EA92
:104B60000C0F00F0858090EA010F48BF42F480727C
:104B700040F4000C41F400002CF07F4120F07F4015
:104B800000B58142A2EB03020FF2081CACEB504EC1
:104B9000C0F100009EF800E04FEA4E0E00FB0EFC54
:104BA00038BF49004FEA2C1C02F5FA020CFB0EF349
:104BB0004FEACE1E4FEA112C4FEAC1210EEB635E85
:104BC00042EB22420EFB0CFC4FEA1C5300FB03118C
:104BD0004FEA112C4FEA01310EFB0CFC4FEADC4C82
:104BE00000FB0C11C14228BF09184CEB03335DF8E0
:104BF00004EB10EB410143EBC250B2F57C0F38BF20
:104C0000704729D512F0F00F1CBF00F1C04000F032
:104C100000407047008182838485868788898B8CD9
:104C20008D8E8F919293959697999A9C9D9FA0A215
:104C3000A3A5A7A8AAACAEB0B2B3B5B7B9BCBEC065
:104C4000C2C5C7C9CCCED1D4D7D9DCDFE2E6E9EC06
:104C5000F0F3F7FAFE0000004FEA400C0CF1807C04
:104C6000BCF17E4F28BF7047B0F1C04000F089B85A
:104C700090EA010F0CEAD11348BF42F480726245FA
:104C800038BF634507D213F47F0F16D080EA0100C6
:104C900000F00040704710B500F02DF8097EFC3E92
:104CA00000F005B880EA010000F00040704780EA9B
:104CB000010000F0004000F064B812F47F0F04BF60
:104CC0000248704780EA010000F05BB80000C07F36
:104CD000B0FA80F310FA03F2C3F19D030AD0D905AC
:104CE00001EB1220530638BF704700F1010008BFE6
:104CF00020F0010070470EF1020E2EF0030E5EF858
:104D0000044B244204D44FEA4102B2F17F4F11D840
:104D10004FEA4003B3F17F4F0CD80ED14FEAD07C5D
:104D2000B2F17F4F0CEB4C0C0CF1020C08BF4CEBBA
:104D3000D17C04E04FF0080C01E04FEAD17C0CEB91
:104D40004C0324FA03F404F00704B4F1040C06D273
:104D50000EEB840CBDE810404CF0010C6047DFE81E
:104D60000CF0070802024FF00040A0F5800010BDD3
:104D70000846420018BFD2F1807288BF00F00040A0
:104D800010BDFF2141EAD050C0057047FCF712B9B1
:104D9000FCF746BA010202030405060708090A0BDC
:104DA0000C0D0E0F101000000000000000000102AA
:104DB00003040607080900000000010203040000C4
:104DC0000000000000000000303132333435363747
:104DD000383941424344454640305800303132333F
:104DE000343536373839616263646566403078003F
:104DF00004000008000000000000000200010000A4
:104E00001030313233343536373839616263646596
:104E100066787000303132333435363738394142B4
:104E2000434445465850000002400000000000A0E6
:104E30000000000005400000000000C80000000065
:104E40000C4000000000409C0000000019400000E1
:104E50000020BCBE0000000034400000BFC91B8E13
:104E600000000004B5400000504BCFD06607E2CFF1
:104E7000010000006C4100003E8251AADFEEA73421
:104E800001000000D9420000DCB5A0E23A301F97D3
:104E9000FFFFFFFFB4450000FD25A0C8E9A3C14FF7
:104EA000FFFFFFFFFF3F0000000000800000000048
:104EB000FF3F0000000000800000000020537461EC
:104EC0007475733A2046616E7320312D33204D6521
:104ED000743A202573207C2046616E7320342D3671
:104EE000204D65743A202573207C205A65726F200E
:104EF00052504D20416C6572743A202573207C20FD
:104F0000506F6C61726974793A2025730D0A0D0A2D
:104F10000000000020312E20534554203C66616E75
:104F20003E203C72706D3E20202020203A205365A8
:104F300074207461726765742073706565642028DD
:104F4000652E672E202753455420312031383030CC
:104F5000272C202753455420414C4C2032303030F0
:104F600027290D0A0000000020322E2044555459F4
:104F7000203C66616E3E203C7063743E2020202001
:104F80003A20536574206D616E75616C2050574DE9
:104F900020647574792028307E31303029202865CE
:104FA0002E672E2027445554592031203630272C87
:104FB00020274455545920414C4C2031303027296A
:104FC0000D0A000020342E2053544F50203C6661BF
:104FD0006E3E202020202020202020203A205374C4
:104FE0006F702066616E2028652E672E202753542F
:104FF0004F502031272C202753544F5020414C4CE8
:1050000027290D0A000000004552523A20557361CD
:1050100067653A20534554203C66616E5F69643E83
:10502000203C72706D3E2028652E672E205345541B
:1050300020312031383030206F72205345542041C8
:105040004C4C2032303030290D0A000020332E2005
:10505000504F4C4152495459203C4E4F524D7C5276
:1050600045563E203A20546F67676C652050574D77
:1050700020706F6C617269747920284E4F524D41D7
:105080004C206F72205245564552534544290D0A13
:10509000000000002046616E2025643A202534750A
:1050A0002052504D20285461726765743A2025348F
:1050B000752C20447574793A2025342E31662525C7
:1050C0002C2050756C7365733A20256C752C204D1F
:1050D00065743A202573290D0A00000020352E2022
:1050E000535441545553202F20474554202020200D
:1050F000202020203A205175657279207265616CFC
:105100002D74696D6520706172616D65746572736F
:1051100020696D6D6564696174656C790D0A0000C4
:105120006C52000800000020340000002801000834
:10513000A052000834000020C40800004401000808
:105140001001000043000000F8FFFFFF0040404056
:10515000404040404040414141414140404040404A
:1051600040404040404040404040404040050202F6
:1051700002020202020202020202020202202020B5
:105180002020202020202002020202020202909011
:10519000909090901010101010101010101010100F
:1051A0001010101010101010020202020202888863
:1051B000888888880808080808080808080808086F
:1051C0000808080808080808020202024000000057
:1051D00000000000000000000000000000000000CF
:1051E00000000000000000000000000000000000BF
:1051F00000000000000000000000000000000000AF
:10520000000000000000000000000000000000009E
:10521000000000000000000000000000000000008E
:10522000000000000000000000000000000000007E
:10523000000000000000000000000000000000006E
:10524000000000000000000000000000000000005E
:105250001C00000043000000F8FFFFFF0C000000EE
:105260000E0000000F0000002E00000000000000F3
:10527000000000000000000000000000000000002E
:10528000000000000000000000000000000000001E
:1052900001000000100000000000000000127A0071
:04000005080000ED02
:00000001FF
