:020000040800F2
:10000000005000205D010008A5010008A5010008BE
:10001000A5010008A5010008A501000800000000D6
:10002000000000000000000000000000A501000822
:10003000A501000800000000A5010008A5010008B6
:10004000A5010008A5010008A5010008A5010008F8
:10005000A5010008A5010008A5010008A5010008E8
:10006000A5010008A5010008A5010008A5010008D8
:10007000A5010008A5010008A5010008A5010008C8
:10008000A5010008A5010008A5010008A5010008B8
:10009000A5010008A5010008A5010008A5010008A8
:1000A000A5010008A5010008A5010008A501000898
:1000B000A5010008A5010008A5010008A501000888
:1000C000A5010008A5010008A5010008A501000878
:1000D000A501000835100008A5010008A5010008C9
:1000E000A5010008A5010008A50100080000000006
:1000F0000000000000000000000000000000000000
:0C01000000000000000000005FF808F1A3
:10010C0010B5054C237833B9044B13B10448AFF345
:10011C0000800123237010BDD801002000000000D6
:10012C00182B000808B5034B1BB103490348AFF368
:10013C00008008BD00000000DC010020182B000826
:10014C00034613F8012B002AFBD1181A013870470B
:10015C0000F023F80B480C490C4A002302E0D45859
:10016C00C4500433C4188C42F9D3094A094C0023F7
:10017C0001E013600432A242FBD300F0B7FF00F0A1
:10018C000DF8704700000020D8010020EC39000861
:10019C00D801002098050020FEE77047694B2DE937
:1001AC00F0411A6842F480321A604CF250321968ED
:1001BC00880301D4013AFAD11A6812F4003F624A5A
:1001CC00116800F0958041F0140111605A6842F4F6
:1001DC0080625A605A6822F47C125A605A6842F45F
:1001EC00E8125A601A6842F080721A601A6891011B
:1001FC00FCD55A6822F003025A605A6842F0020297
:10020C005A605A6802F00C02082AFAD14F4B504A35
:10021C0000261A6000F0CCF800F00AF94FF4E13037
:10022C0000F0CCFE00F0BEFC4A4801F00BF84A4846
:10023C0001F008F8454B49481968494B3446B1FB65
:10024C00F3F100F08BFF474800F0FCFF464800F04C
:10025C00F9FF464800F0F6FF454800F0F3FF45482B
:10026C0000F0F0FF444800F0EDFF444800F0EAFFD6
:10027C00434800F0E7FF434800F0E4FF3A4800F041
:10028C00E1FF414800F0DEFF404800F0DBFF404852
:10029C0000F0D8FF3746DFF814813E4D00F090FC9B
:1002AC00D8F808309B054AD4C6B944F61F6301340C
:1002BC009C4213D94FF40056374800F0C3FF6E61CF
:1002CC0000F01CFB044640BB344800F047FF6E6155
:1002DC0040F2DC5000F0A0F82E610126304B0137C3
:1002EC009F42DBD9EB68002783F40053EB60D5E722
:1002FC0041F0020111605A6842F4C0125A601A6847
:10030C0042F080721A601A689201FCD55A6842F069
:10031C0002025A600D4B234A7AE70146224800F04C
:10032C001DFF0A24EB68642083F40053EB6000F09B
:10033C0073F8013CF6D14FF400532B61CDE7002646
:10034C003446CBE7001002400020024000000020A1
:10035C0000A24A043C2F0008772F0008B02F000899
:10036C0040420F00DE2F0008173000085030000804
:10037C0089300008C2300008FB3000083431000816
:10038C006D310008A6310008DF3100081832000872
:10039C0051320008001001408C320008C0320008B5
:1003AC003F420F000048E801FE320008000C0140FB
:1003BC000A4AD36843F08073D360094B1A6842F041
:1003CC0001021A6000225A60064B074A1B68002B78
:1003DC0008BF1346054A1360704700BFF0ED00E0FC
:1003EC00001000E00000002000A24A0404000020DD
:1003FC00064B10B51B68064C064AB3FBF4F3584386
:10040C00516853685B1A8342FBD310BD0400002073
:10041C0040420F00001000E010B5044614F1FF3408
:10042C0000D210BD4FF47A70FFF7E2FFF6E7000040
:10043C001A4A936943F01C039361194B1A68120C06
:10044C0012041A601A6842F44C5242F033021A60D9
:10045C0001221A6104225A6102225A6108221A618D
:10046C00D3F8042803F5806322F47002C3F8042443
:10047C00D3F8042442F40012C3F804244FF40052BD
:10048C00C3F810245A6822F0F0025A605A6842F0FD
:10049C0080025A604FF400721A61704700100240DB
:1004AC0000080140034A136823F0F00343F03003C3
:1004BC001360704700080140044A136823F0F003EE
:1004CC0043F080031360022313617047000801405E
:1004DC002DE9F843064689460025FFF7E3FF02277E
:1004EC000C4CA94503D102236361BDE8F8834FF09E
:1004FC000408F3074CBF276167610120FFF778FF01
:10050C00C4F810800120FFF773FF7608C4F814803C
:10051C000135E6E7000801402DE9F8430024804648
:10052C00FFF7CAFF0120FFF763FF264604274FF0B1
:10053C0001090D4D444506D1FFF7B4FF02233046A7
:10054C006B61BDE8F88301202F61FFF751FFAB68A9
:10055C0001209B0748BF09FA04F36F6148BF1E4393
:10056C000134FFF745FFE5E70008014008B500F04E
:10057C003F000621FFF7ACFFBDE808400120FFF764
:10058C0037BF08B547F6FE73102103EA4000FFF7AA
:10059C009FFFBDE808400120FFF72ABF08B51020D7
:1005AC00FFF7BAFFC0F34D0008BD00000423134948
:1005BC0010B54B6102234B61FFF774FF01244FF41C
:1005CC00AF704C61FFF714FF08215020FFF780FF3C
:1005DC0008214820FFF77CFF08214320FFF778FF14
:1005EC0008214D20FFF774FF21460020FFF770FF14
:1005FC004FF4AF70FFF7FCFE002010BD0008014067
:10060C0008B5042306494B6102234B61FFF74AFFEF
:10061C0001230F200B61BDE80840FFF7FDBE00BFB2
:10062C000008014008B51620FFF7A0FFBDE8084000
:10063C000220FFF7DDBE08B50020FFF797FF002072
:10064C00FFF79FFFBDE808400220FFF7D1BE38B589
:10065C0004464FF6FF75013CA4B2AC4200D138BD44
:10066C000620FFF783FF0120FFF7C2FEF3E708B572
:10067C000420FFF77BFFBDE80840FFF78FBF2DE993
:10068C00F04706468A4691461F46DDF82080FFF764
:10069C008DFFFFF7C7FF16B13046FFF7D8FF0024D8
:1006AC00A145A5B203D1FFF7ABFF002013E0FFF784
:1006BC00DEFF3AF814300134C3F30D0398420CD02A
:1006CC000FB135443D80B8F1000F01D0A8F80000FF
:1006DC00FFF796FF0520BDE8F0870120FFF7B7FF75
:1006EC00DEE7F8B50446002846D0FFF75FFFFFF7BA
:1006FC0099FFFFF7A0FF0620FFF7A9FFFFF7B7FF51
:10070C0020F4404323F01F03238000F01F03638079
:10071C0005460120FFF79BFFFFF7A9FFA0800120F2
:10072C00FFF795FFFFF7A3FFE080FFF77BFFFFF7D5
:10073C0082FF04F1080604F11007FFF798FF26F872
:10074C00020B0120FFF783FFBE42F6D1FFF758FFE3
:10075C002388002023F01003B3F5415F02D101235D
:10076C002374F8BD43F6FF739D42207406D0002D10
:10077C000CBF01200220F4E70720F2E70120F0E78C
:10078C0008B5FFF713FFFFF74DFFFFF754FF0920E4
:10079C00FFF7ECFE0C20FFF73FFEFFF731FF0020C8
:1007AC0008BD70B5054616460C46E9B18318B3F57D
:1007BC00805F19DCFFF7FAFEFFF734FF15B128460E
:1007CC00FFF745FFA51E04EB4604023CA54203D1EE
:1007DC00FFF716FF002070BDFFF749FF25F8020F49
:1007EC000120FFF734FFF1E70720F4E7F8B50446E2
:1007FC0015460E4649B3571EFBB21F2B25D8FFF7E3
:10080C00D5FEFFF70FFF14B12046FFF720FF0024A1
:10081C000220FFF7ABFE36F81400FFF7B2FEA7423A
:10082C0002DD0620FFF7A2FE0134E3B29D42EFD8B1
:10083C000820FFF79BFE0420FFF7EEFD0620FFF7D4
:10084C0095FEFFF7DDFE0020F8BD0720FCE738B56C
:10085C0004460D46FFF7AAFEFFF7E4FEFFF7EBFE9A
:10086C00B4F5004F03D984F40040FFF7F0FE0020EC
:10087C00FFF77CFEC5F30D00FFF783FE0820FFF7A2
:10088C0075FE0620FFF7C8FDFFF7BAFE002038BD45
:10089C0070B5044678B3FFF789FEFFF7C3FEFFF788
:1008AC00CAFE04F1080504F11006FFF7E0FE25F876
:1008BC00020B0120FFF7CBFEB542F6D10220FFF769
:1008CC00C6FEFFF7D4FE20F4404323F01F0300F0D4
:1008DC001F00238060800120FFF7B9FEFFF7C7FEE1
:1008EC00A0800120FFF7B3FEFFF7C1FEE080FFF709
:1008FC0087FE002070BD0720FCE7000070B58EB0AD
:10090C0004A8FFF7EEFE0446002847D1FFF738FF96
:10091C000446002842D10A20FFF77EFD2546224ED0
:10092C00680180B2202206EB8511FFF75FFF0446B9
:10093C00A0BB0135102DF3D143F6847148F20700AA
:10094C00FFF785FF044648BB41F6134148F2080007
:10095C00FFF77DFF044608BB0DF10E0300934FF427
:10096C00007203AB1049ADF80C00ADF80E00FFF7A8
:10097C0086FE044690B909A8FFF78AFF044668B9B9
:10098C0043F68473BDF828209A420AD141F61343EA
:10099C00BDF82A209A4204D1FFF732FE20460EB051
:1009AC0070BD0524FAE700BF3C2B000810B54FF6CC
:1009BC00FF7341F221040144884201D1184610BD55
:1009CC0010F8012B83EA0223082213F4004F02F1E2
:1009DC00FF324FEA430318BF634012F0FF029BB291
:1009EC00F3D1E9E730B54AF65525C5B0BDF820413D
:1009FC00ADF808508DF80A008DF80B108DF80C200E
:100A0C00ADF80D4033B12CB1224619460DF10F0053
:100A1C0000F090FB0734A4B2214602A8FFF7C6FFF2
:100A2C002146ADF8060002A800F024FB02210DF1CE
:100A3C00060000F01FFB45B030BD0000F0B5564E6F
:100A4C00ADF5057DB37842AD013B082B00F29E80DD
:100A5C00DFE803F0052E3F45648192969900002053
:100A6C0004244E4B02934AF65521B278F378298030
:100A7C00AA70EB702871A5F805402CB1224602A98A
:100A8C000DF20F1000F056FB0734A4B22146284695
:100A9C00FFF78CFF2146ADF80600284600F0EAFA75
:100AAC0002210DF1060000F0E5FA0DF5057DF0BD13
:100ABC002846FFF716FE0446002839D1AC4602AF93
:100ACC00BCE80F000FC7DCF8003020463B80122436
:100ADC00C9E7FFF755FE00285AD1002012E0F28832
:100AEC00C2F34702202A55D800232D49934201F125
:100AFC00020109DB2946B088FFF778FE00280CBFFD
:100B0C00002003200024AEE711F8014C11F8020C70
:100B1C0040EA042025F813000133E7E7F48829465E
:100B2C00802C28BF8024B0882246FFF73AFE80B183
:100B3C000120E7E735F8103002EB400102F81030E5
:100B4C001B0A4B700130A042F4DB6400A4B20020FD
:100B5C0089E702AAF7E7F388032B1BD9F17AB27A5B
:100B6C00707A337A42EA012143EA0020FFF76FFEE4
:100B7C000028B2D00320C5E72846FFF789FE9AE784
:100B8C00FFF73EFDA9E7FFF7B9FEF1E7FF20B9E754
:100B9C000220B7E70520B5E7F6010020504F4E477D
:100BAC00FE0100200023034A1380034A1380034AEA
:100BBC001380704700030020F40100200203002082
:100BCC002DE9F047AA4CAB4DA4B00DF10B0000F091
:100BDC005DFA10B924B0BDE8F08721889DF80B2090
:100BEC0041BBAA2A26D0A44E0D2A338866D1002BED
:100BFC00EBD00022A14F3846FA54FFF7A1FAA04AD5
:100C0C003844874200F0928010F8013C0A3BDBB27A
:100C1C00162B05D822FA03F3DB4313F0010359D04A
:100C2C009849964800F085FB002856D1964800F06C
:100C3C0009FB7BE04B1C9BB2944E012B238072541E
:100C4C0008D13378AA2B01D0002323802388002BD2
:100C5C00C9D0BAE7022B02D17378552BF3E7082BD6
:100C6C0007D1F388B3F5807FEED889490A330B801E
:100C7C00ECE7EBD9DFF81882B8F800709F42E5D1A9
:100C8C00F1883046083189B2FFF790FE374417F8E7
:100C9C00012C17F8023C43EA0223834206D1FFF7EA
:100CAC00CDFE00232380A8F800308EE70023F178D6
:100CBC00B07806220093FFF795FEF2E70A2A96D049
:100CCC00082A02D07F2A40F05581002B3FF47DAFDB
:100CDC00013B2CE000F8013D93E76E49674800F0BA
:100CEC0028FB20B16C49654800F023FB28BB04A805
:100CFC00FFF7F7FC0146E0B9BDF81220BDF8101063
:100D0C00664800F02BFABDF81620BDF814106448A4
:100D1C0000F024FABDF81E00BDF81C300090BDF8A0
:100D2C001A20BDF818105F4800F018FA0023338021
:100D3C004BE75D4800F012FAF8E75C494F4800F0C9
:100D4C00F8FA50B95A4800F07DFAFFF719FD014640
:100D5C0008B958486BE75848ECE70522574947480B
:100D6C0000F005FB074600283DD1102224AB23F8E8
:100D7C00822DADF80C0003AA5149524800F06AFAD2
:100D8C00BDF80E300DF11008402B84BF4023ADF898
:100D9C000E304146BDF80E20BDF80C00FFF701FDEA
:100DAC000146F0B9BDF80E20BDF80C10464800F015
:100DBC00D5F9DFF84C91DFF814A1BDF80E309F4245
:100DCC0003DB5B07B2D0414831E738F817104846CF
:100DDC00013700F0C3F97A07EFD1504600F032FA30
:100DEC00EBE73B48A6E73B49244800F0A2FAD0B910
:100DFC0004A8FFF74DFDA0B9BDF81410364800F05B
:100E0C00ADF9BDF81610354800F0A8F9BDF81E0074
:100E1C00BDF81C300090BDF81A20BDF818103048F1
:100E2C0082E7304803E73049144800F082FA18B9D9
:100E3C00FFF7E6FB2D48FAE62D49104800F079FA49
:100E4C0028B12C490D4800F074FA00286BD14FF4EE
:100E5C000057294800F0F6F96F61FFF74FFD014686
:100E6C0000284FD1254800F079F92F615EE700BFCB
:100E7C0000030020001001400203002004030020A6
:100E8C00090040001F3800083A330008F601002022
:100E9C00F401002040330008473300084A330008AF
:100EAC00773300089D330008CC3300081334000856
:100EBC0019340008463400086F34000892340008D6
:100ECC009834000809030020A03400088A32000876
:100EDC00C3340008E6340008EA340008FC34000887
:100EEC000E3500082D350008493500084F3500082F
:100EFC007B3500088235000887350008BD350008B1
:100F0C00BD3400081F4800F029F90627EB6896202D
:100F1C0083F40053EB60FFF77FFA013FF6D14FF4F7
:100F2C0000532B6102E71849184800F002FA20B16F
:100F3C001749164800F0FDF9C8B9164800F082F9B7
:100F4C00154800F07FF9154800F07CF9144800F0C2
:100F5C0079F9144800F076F9134800F073F9134846
:100F6C0000F070F9124800F06DF912485FE607497D
:100F7C001148DFE67E2B9FBF591C31800349CA54B0
:100F8C0023E600BFF73500081F36000804030020D5
:100F9C002436000826360008553600087D36000831
:100FAC00B8360008ED3600081C3700085637000824
:100FBC0096370008CA370008F2370008144B9A69B4
:100FCC0042F4804242F004029A614FF48063114A69
:100FDC00516821F47F615160516841F40B6151609B
:100FEC0013610D4B0D4A1B68002B08BF134603EB16
:100FFC005003B3FBF0F042F22C02094B9860DA601C
:10100C001022084B83F8252320225A60704700BF1A
:10101C0000100240000801400000002000A24A0419
:10102C000038014000E100E00A4B10B51A68920646
:10103C000FD5094A58680949138809880133C3F345
:10104C0008038B4205D01188054C89B2C0B260549C
:10105C00138010BD00380140840300208605002059
:10106C0086030020024B1A681206FCD558607047A4
:10107C000038014010B5441E21448C4200D110BDF3
:10108C0014F8010FFFF7EEFFF7E700000A4B0B4ACD
:10109C00198813889BB28B420BD0138808499BB2DA
:1010AC00CB5C0370138801200133C3F30803138056
:1010BC0070470020704700BF840300208605002085
:1010CC008603002070B515460C46631A9D4201DC60
:1010DC00284670BD237826460A2B02D10D20FFF737
:1010EC00C1FF30780134FFF7BDFFEEE770B5002586
:1010FC000C4E0D4CA41BA410A54209D101F006FD09
:10110C0000250A4E0A4CA41BA410A54205D170BDA3
:10111C0056F8253098470135EEE756F825309847B4
:10112C000135F2E7E4390008E4390008E439000835
:10113C00E839000810B5431E0A44914200D110BD95
:10114C0011F8014B03F8014FF7E7034602449342B1
:10115C0000D1704703F8011BF9E700000FB40A4BEC
:10116C0013B51C6824B1A36913B9204600F0F6FA34
:10117C0005AB049AA1682046019300F08BFE02B0E7
:10118C00BDE8104004B070470800002070B50E4652
:10119C00054618B183690BB900F0E0FAAB69AC688D
:1011AC0013B9284600F0DAFA234B9C4217D16C682D
:1011BC00A3891B071DD52369DBB1013EA36816F873
:1011CC00011F013BA360E9B9002B2EDA22460A214C
:1011DC00284600F0F1F8013011D00A2011E0174B2D
:1011EC009C4201D1AC68E3E7154B9C4208BFEC680C
:1011FC00DEE72146284600F043F90028DDD04FF009
:10120C00FF3070BD002B04DAA2699A4206DC0A2971
:10121C0004D023685A1C22601970CFE72246284656
:10122C0000F0CAF80130C9D1E9E70A2023685A1C3A
:10123C0022601870E5E700BF4838000868380008DD
:10124C0028380008024B01461868FFF79FBF00BF03
:10125C00080000200EB44FF4017230B59CB01FACE6
:10126C0054F8045BADF8142002900690FEF768FF6A
:10127C000B4B03900B9300230F9314934FF6FF73B8
:10128C0007900848ADF816302A46234602A9006894
:10129C00019400F087FC1CB0BDE8304003B07047EF
:1012AC00D71200080800002010B50C46B1F90E103A
:1012BC0001F0E4F90028ABBF636DA3891B1823F47C
:1012CC008053ACBF6365A38110BD002070472DE92E
:1012DC00F0411F468B890546DB050C46164605D5A5
:1012EC0002230022B1F90E1000F0D4FAA389324681
:1012FC0023F48053A381B4F90E103B462846BDE875
:10130C00F04100F0ABB810B50C46B1F90E1000F07E
:10131C00C1FA431CA38915BF606523F4805343F4C1
:10132C008053A38118BFA38110BDB1F90E1000F03A
:10133C0015B9F8B506460F4616F8014B00F09CFAA5
:10134C002044437817F8015B03F00303012B08BF1B
:10135C00203400F091FA2844427802F00302012A6A
:10136C0008BF2035601B01D1002DE5D1F8BD2DE95A
:10137C00F04106460F4600EB0208B04519D016F8AE
:10138C00014B00F079FA2044437817F8015B03F025
:10139C000303012B08BF203400F06EFA2844427876
:1013AC0002F00302012A08BF2035601B02D1002D78
:1013BC00E3D10020BDE8F081F8B50E461446054691
:1013CC0018B183690BB900F0C9F9214B9C422AD1A1
:1013DC006C68A369A360A3891A072ED5236963B32C
:1013EC0023692068F6B2C01A63693746834204DC6D
:1013FC002146284600F048F928BBA3680130013B80
:10140C00A36023685A1C22601E706369834204D057
:10141C00A389DB0719D50A2E17D12146284600F0DF
:10142C0033F990B10FE00B4B9C4201D1AC68D0E783
:10143C00094B9C4208BFEC68CBE72146284600F0DC
:10144C001FF80028CCD04FF0FF373846F8BD00BF4E
:10145C0048380008683800082838000838B50546B0
:10146C00084611460022054C22601A46FFF72AFE58
:10147C00431C02D1236803B12B6038BD94050020B6
:10148C00324B70B51D6806460C4625B1AB6913B9D5
:10149C00284600F063F92E4B9C420FD16C68B4F9CE
:1014AC000C309AB215072CD4D00611D40922326014
:1014BC0043F04003A3814FF0FF303EE0254B9C42AC
:1014CC0001D1AC68EBE7244B9C4208BFEC68E6E723
:1014DC00510712D5616B41B104F14403994202D01A
:1014EC00304600F05FFA00236363A38923F02403E2
:1014FC00A3810023636023692360A38943F008035D
:10150C00A38123694BB9A38903F42073B3F5007F3E
:10151C0003D02146304600F0F3F9A28912F0010302
:10152C000CD00023A36063695B42A361236953B9A8
:10153C00B4F90C3013F08000BAD170BD920758BFCB
:10154C006369A360F2E70020F7E700BF0800002002
:10155C0048380008683800082838000838B50023D7
:10156C00054C05460846236001F09AFA431C02D14B
:10157C00236803B12B6038BD940500208A892DE9BE
:10158C00F041054610070C4658D44B68002B05DC7F
:10159C000B6C002B02DC0020BDE8F081E66A002E0B
:1015AC00F9D0002312F480522F68216A2B6032D0BC
:1015BC00606DA3895A0705D56368C01A636B0BB1BC
:1015CC00236CC01A00230246E66A216A2846B047FB
:1015DC00431CA38906D129681D2948D8294ACA4029
:1015EC00D60744D5002262602269D904226004D552
:1015FC00421C01D12B6803B96065616B2F60002917
:10160C00C9D004F14403994202D0284600F0CAF92B
:10161C0000206063C0E701232846B047411CC8D1B5
:10162C002B68002BC5D01D2B01D0162B01D12F60A0
:10163C00B1E7A38943F04003A381ADE70F69002F05
:10164C00A9D0930718BF00230E6808BF4B69A6EBFF
:10165C0007080F608B60B8F1000F9CDD43463A46DB
:10166C00216A2846A66AB047002806DCA38943F005
:10167C004003A3814FF0FF308EE70744A8EB00082E
:10168C00E9E700BF0100402038B50B6905460C4660
:10169C00DBB118B183690BB900F060F80C4B9C42BC
:1016AC0009D16C68B4F90C307BB121462846BDE8F1
:1016BC003840FFF763BF074B9C4201D1AC68F1E7A0
:1016CC00054B9C4208BFEC68ECE7002038BD00BF1E
:1016DC00483800086838000828380008002310B57E
:1016EC000446C0E90033836081814366C281C0E94E
:1016FC0004338361194608225C30FFF726FD054B45
:10170C0024626362044BA362044BE362044B2363C5
:10171C0010BD00BFB5120008DB120008131300083F
:10172C0037130008014900F085B800BF9516000872
:10173C0070B568254A1E55430E4605F1740100F03C
:10174C007DF9044640B10021C0E900160C30A060C0
:10175C0005F16802FFF7F9FC204670BD836910B5EE
:10176C00044633BBC0E912330365124B124A1B68A3
:10177C008262984204BF0123836100F01FF860600D
:10178C00204600F01BF8A060204600F017F800225D
:10179C00E06004216068FFF7A1FF01220921A06825
:1017AC00FFF79CFF02221221E068FFF797FF01234D
:1017BC00A36110BD2438000831170008F8B51B4B85
:1017CC0007461E68B36913B93046FFF7C7FF4836A2
:1017DC00D6E90134013B03D5336833B13668F7E7FA
:1017EC00B4F90C506DB16834F4E704213846FFF7B6
:1017FC009FFF30600028F1D10C2304463B6020464B
:10180C00F8BD0B4B6566C4E90055A560C4E903350A
:10181C00C4E905550822294604F15C00FFF795FC44
:10182C00C4E90D55C4E91255E9E700BF2438000896
:10183C000100FFFF2DE9F84380468946002600F1A0
:10184C00480414B93046BDE8F883D4E90175013F6A
:10185C0001D52468F5E7AB89012B07D9B5F90E3012
:10186C00013303D029464046C84706436835EEE7A6
:10187C00D0F8EC0070470000044B054A1B681B6A4B
:10188C00002B08BF1346D3F8EC007047080000206B
:10189C006C00002038B50546084611460022054C60
:1018AC0022601A4601F014F9431C02D1236803B1DB
:1018BC002B6038BD9405002070B50E46B1F90E10A2
:1018CC0096B0002914461D4607DA00232B60B38915
:1018DC001A0610D44FF480630EE06A4601F080F8CB
:1018EC000028F2DB019A02F47042A2F500535A422E
:1018FC005A412A60EEE740230020236016B070BDE9
:10190C008B8973B59D0706460C4607D504F1470332
:10191C00236023610123636102B070BD01AB6A4691
:10192C00FFF7CAFF00990546304600F087F848B922
:10193C00B4F90C309A05EFD423F0030343F00203FF
:10194C00A381E3E70D4BB362A389206043F08003CE
:10195C00A381009B20616361019B5BB1B4F90E1004
:10196C00304601F04FF828B1A38923F0030343F06C
:10197C000103A381A3891D43A581CDE7311700087D
:10198C0082B001B901A942B14BB113780B60127846
:10199C00101C18BF012002B070471046FBE76FF017
:1019AC000100F8E738B50546002943D051F8043C4E
:1019BC000C1F002BB8BFE41801F042F81E4A136844
:1019CC00104633B9636014602846BDE8384001F016
:1019DC0038B8A3420BD921686218934201BF1A6828
:1019EC005B685218226063600460EDE713465A6826
:1019FC000AB1A242FAD919685818A0420BD1206832
:101A0C000144581882421960DED1106852680144B2
:101A1C0019605A60D8E702D90C232B60D4E72068F0
:101A2C0021188A4201BF116852680918216062604E
:101A3C005C60C9E738BD00BF8805002070B5CD1CBF
:101A4C0025F0030508350C2D38BF0C25002D064656
:101A5C0001DBA94203D90C233360002070BD00F0D8
:101A6C00EFFF214A1468214691B9204C23681BB919
:101A7C00304600F015FE20602946304600F010FE7E
:101A8C00431C24D10C233046336000F0DAFFE4E72A
:101A9C000B685B1B18D40B2B0FD90B60CC18CD50DB
:101AAC00304600F0CEFF04F10B00231D20F00700A0
:101ABC00C31AD3D05A42E250D0E74B688C4216BFBF
:101ACC00636013600C46EBE70C464968CCE7C41C1A
:101ADC0024F00304A04205D0211A304600F0E0FDAA
:101AEC000130CFD02560DBE7880500208C05002075
:101AFC0038B54B1C144603D14FF0FF35284638BD82
:101B0C009389CDB223F020039381636B52688BB120
:101B1C00A36B934208DD23685A1E226003F8015C14
:101B2C00636801336360E9E7214600F013FF002886
:101B3C00F1D0E1E72169236851B1994208D213F839
:101B4C00011CA94204D1013B013223606260D5E73C
:101B5C00C4E90F3204F1440363630323A3632346F4
:101B6C0003F8465F23600123DCE710B50C46496B94
:101B7C0069B104F14403994201D0FFF713FF00202F
:101B8C00236C6063636013B1E36B236010BD236946
:101B9C004FF0FF30236000236360A38943F02003E0
:101BAC00A381F3E72DE9F04FADF5257D01930023DB
:101BBC0006460C4692460A27469347939D4B0DF1D9
:101BCC000C08A2939C4BDFF87492CDF82081A39360
:101BDC009AF80030002B00F02A815546FFF74CFE96
:101BEC0015F801BB5844437813F008031CD0636804
:101BFC00002B12DDFFF740FE23681A781044427860
:101C0C00120701D4AA46E3E7479A013301324792FF
:101C1C0062682360013A6260E9E7A39B2146304683
:101C2C0098470028E6D0EDE7BBF1250F40F0828005
:101C3C00459343939AF801302A2B03D110230AF1D0
:101C4C0002054393AA4615F8011BA1F13002092A9B
:101C5C0022D90322794800F0E5FE38B1A0EB090344
:101C6C000120AA469840439B184343909AF80030B1
:101C7C000AF10105672B2BD8652B80F09F80472B31
:101C8C0010D8452B80F09A80002B6CD0252B51D08E
:101C9C0003234497499327E0459B07FB0313303BF1
:101CAC004593CFE75B2B6AD00CD8582BF0D1439AD5
:101CBC0042F400724392102244926E2B8CBF042388
:101CCC00032310E0632B65D0642BE1D14497F4E738
:101CDC00702B4BD026D86E2B62D04CD8692BD7D119
:101CEC0000234493032349936368002B68DD439BD3
:101CFC00590607D4FFF7C0FD23681A7810444278C0
:101D0C00120764D4499B022B73DC01AB224643A916
:101D1C00304600F05BFB012800F0898002287FF43C
:101D2C0071AF1DE0752BD1D0782BC0D0732BAFD1F8
:101D3C000223D8E76368002B0CDD23681A785A4518
:101D4C0075D1013362682360479B013A01336260AD
:101D5C00479357E7A39B2146304698470028ECD081
:101D6C004698002859D14FF0FF305CE0439A42F07E
:101D7C00200243929BE7082344930423B3E72946AC
:101D8C00404600F09DFC439B054643F040034393C3
:101D9C000123A8E7439B43F0400343930023A2E7AE
:101DAC004398C3063FF52EAF019B479A191D01912D
:101DBC001B68C0074CBF1A801A6023E7052392E703
:101DCC00A39B214630469847002890D0C8E7479AF5
:101DDC00013247926268013A002A626002DD0133E7
:101DEC00236087E7A39B214630469847002881D083
:101DFC00B6E7042B06DC01AB224643A9304600F0C3
:101E0C0047FB88E70E4B002B3FF4FCAE01AB2246A0
:101E1C0043A93046AFF300807DE7A38913F0400F50
:101E2C0018BF4FF0FF300DF5257DBDE8F08F4698BB
:101E3C00F9E700BFFD1A0008771B0008923800086C
:101E4C0000000000936810B4013B002B936007DA8C
:101E5C009469A34201DB0A2902D110BCFFF7ACBA8A
:101E6C001368581C10601970084610BC7047F8B500
:101E7C0006460F461446D518AC4201D1002007E0A7
:101E8C003A4614F8011B3046FFF7DCFF431CF3D134
:101E9C00F8BD00002DE9F04F9DB00C46174603939A
:101EAC00064618B183690BB9FFF758FC7B4B9C4273
:101EBC0057D17468A38918075DD52369002B5AD0B4
:101ECC000023099320238DF8293030234FF0010B88
:101EDC008DF82A30B846454615F8013B0BB1252B39
:101EEC0054D1B8EB070A0BD053463A46214630463C
:101EFC00FFF7BDFF013000F0C280099B53440993EA
:101F0C0098F80030002B00F0BA8000234FF0FF321D
:101F1C00CDE90523049307938DF853301A93A84603
:101F2C00052218F8011B5E4800F07CFD049B78BB71
:101F3C00D90644BF20228DF853201A0744BF2B2208
:101F4C008DF853202A782A2A2AD0A84600200A2560
:101F5C00079A414611F8013B303B092B69D960B314
:101F6C0024E0504B9C4201D1B468A3E74E4B9C42F9
:101F7C0008BFF4689EE721463046FFF781FA002837
:101F8C009ED04FF0FF301DB0BDE8F08FA846A2E701
:101F9C00434A4546801A0BFA00F018430490BEE7FA
:101FAC00039A111D12680391002A01DB079204E0C9
:101FBC00524243F002030792049398F800302E2B00
:101FCC000ED198F801302A2B38D1039B08F1020866
:101FDC001A1D1B680392002BB8BF4FF0FF330593FB
:101FEC00324D032298F80010284600F01BFD40B13A
:101FFC004023401B03FA00F0049B08F10108034343
:10200C00049398F800100622294808F101078DF86E
:10201C00281000F007FD002837D0264B1BBB039B74
:10202C00073323F0070308330393099B4B440993AD
:10203C0050E705FB0232012088468AE700230A2577
:10204C00194608F101080593404610F8012B303A67
:10205C00092A03D9002BC3D00591C1E705FB012147
:10206C0001238046F0E703AB00932246124B04A9F0
:10207C003046AFF30080B0F1FF3F8146D5D1A38944
:10208C005B063FF57EAF09987DE703AB00932246D4
:10209C00094B04A9304600F087F8ECE748380008F3
:1020AC00963800086838000828380008923800086C
:1020BC009C380008000000007B1E00082DE9F0474A
:1020CC0091461F468A680B6906469342B8BF134671
:1020DC00C9F8003091F843200C46DDF8208012B18D
:1020EC000133C9F800302368990642BFD9F8003093
:1020FC000233C9F80030256815F0060507D104F144
:10210C00190AE368D9F800209B1AAB4229DC94F831
:10211C0043302268003318BF012392062ED404F1F9
:10212C00430239463046C047013021D02368E56868
:10213C0003F00603042B18BF0025D9F800204FF03C
:10214C00000908BFAD1AA368226908BF25EAE57526
:10215C009342C4BF9B1AED181A344D451AD1002076
:10216C0008E00123524639463046C047013003D1BE
:10217C004FF0FF30BDE8F0870135C2E73020E118A1
:10218C0081F843005A1C94F845102244023382F81B
:10219C004310C4E70123224639463046C04701307C
:1021AC00E6D009F10109D8E72DE9F04301F1430C20
:1021BC000C46097E85B06E291746064698460C9A41
:1021CC0000F0B38022D8632936D00AD8002900F059
:1021DC00B980582900F0838004F1420584F842103C
:1021EC0032E0642901D06929F6D12068136805060C
:1021FC0003F104012AD51B681160002B03DA2D2290
:10220C005B4284F843206F480A2239E0732900F0BE
:10221C009D8008D86F2920D07029DDD1236843F028
:10222C002003236003E0752917D07829D4D17823B3
:10223C00654884F8453055E0136804F14205191DD2
:10224C001B68116084F8423001238CE01B6810F08D
:10225C00400F116018BF1BB2CFE713682568181D1B
:10226C001060280601D51B6802E06806FBD51B88A8
:10227C006F2914BF0A2208225248002184F8431007
:10228C006568002DA560C0F29580216821F00401DD
:10229C002160002B3DD1002D40F08E806546082A30
:1022AC000BD12368DB0708D5236962689A42DEBF2D
:1022BC00302305F8013C05F1FF35ACEB0503236138
:1022CC00CDF800803B4603AA21463046FFF7F6FEC8
:1022DC0001304DD14FF0FF3005B0BDE8F0833948E7
:1022EC0084F84510136821681D1D1B6815600A06CB
:1022FC000BD5CA0744BF41F0200121601BB92268ED
:10230C0022F0200222601022B7E74D0648BF9BB294
:10231C00EFE76546B3FBF2F102FB1133C35C05F842
:10232C00013D0B460029F5D1B9E713682568181D46
:10233C006169106028061B6801D5196002E06A0605
:10234C00FBD51980002365462361B9E71368191D75
:10235C0011601D6862680021284600F063FB08B11B
:10236C00401B606063682361002384F84330A7E757
:10237C0023692A4639463046C0470130AAD0236823
:10238C009B0713D4E068039B9842B8BF1846A3E799
:10239C0001234A4639463046C04701309AD00135B0
:1023AC00E368039A9B1AAB42F2DCEBE7002504F1DD
:1023BC001909F5E7002BACD1037804F1420584F838
:1023CC0042306CE7A3380008B43800082DE9F0411E
:1023DC0015468A6880460C4632B98A69002A14BFB1
:1023EC004FF0FF3201228A6000262268D1065FBFBF
:1023FC001A68111D19601768A369DBB1012B07D18D
:10240C002B6862691B78D35CA3B9002E31D106E02E
:10241C00022B07D0002E2CD1A369012B29D101202E
:10242C00BDE8F081FFF728FA2B681B781844437835
:10243C001B07EFD423680136DA065EBF2B681B78C6
:10244C003B702A686B6802F101022A60A26803F1F2
:10245C00FF3302F1FF326B6058BF0137A26042B10B
:10246C00002BC9DCD4F88031294640469847002817
:10247C00C2D0236813F0100305D1E2680132E26088
:10248C00A26902B13B70236900201E442661C7E794
:10249C002DE9F04F0C469A46744B87B0834616468E
:1024AC0093E8070003ABA76883E80700704BA169AA
:1024BC00704A04F11C09032908BF1A467B1EB3F5A8
:1024CC00AE7F84BF40F25D13A360236888BF6FF4B6
:1024DC00AE7543F45063236098BF00274B464FF012
:1024EC000008009288BF7F193168019303AB53F841
:1024FC0028000222097800F095FA019B30B3B8F15C
:10250C00010F5AD162682AB908212268616042F42D
:10251C0000722260226822F4A0622260A268511E1E
:10252C00A1609AB132685D1C511C316012781A702E
:10253C007368013B002B736007DCD4F880313146A3
:10254C0058469847002840F087802B4608F1010830
:10255C00B8F1030FC8D162680AB90A2262606268D6
:10256C0045496069891A019300F0AAF8019B4FF064
:10257C0000081D46A3682268002B3BD031686069B7
:10258C0091F800C010F80C00002833D0BCF1300FCB
:10259C0021D110051FD508F1010817B10133013FF6
:1025AC00A3607368013B002B73601CDD336801333F
:1025BC003360A368013BA360DCE7B8F1020FADD137
:1025CC00226802F4C061B1F5007FBFD1102142F442
:1025DC0080726160A1E722F4106222600B780135F1
:1025EC0005F8013CDDE7D4F8803131465846984770
:1025FC000028DED02368D9050CD54D4508D915F82F
:10260C00011C6F1ED4F87C313246584698473D4623
:10261C004D4529D0226812F0100213D12A7063683C
:10262C0049465846009EB047DAF8003021681A1D1A
:10263C00CAF8002011F0200F1B6810D01860E36856
:10264C000133E3600020A5EB0905A8442569454446
:10265C00256107B0BDE8F08F4FF00008CAE7CA0744
:10266C004CBF18801860EAE70120F2E7302B000815
:10267C00252800083D290008D538000838B505463E
:10268C00084611460022054C22601A4600F028FA32
:10269C00431C02D1236803B12B6038BD9405002084
:1026AC0038B50023054C05460846236000F020FA97
:1026BC00431C02D1236803B12B6038BD9405002064
:1026CC0070B50B78441E5E2B13BF4A1C8A1C4B78CA
:1026DC00002108BF012100F1FF0504F8011FAC42E5
:1026EC00FBD113B9013A104670BD81F00104C454FA
:1026FC00511C11F8015C4E1E2D2D0A4606D05D2D85
:10270C00F1D00DB93246EEE72B46F0E70E785D2E90
:10271C00FAD0B342F8DC01339E42C454FBDC0231E4
:10272C00E7E72DE9F0478046894692461E460F465C
:10273C003D46089815F8014BFFF79AF8204443786A
:10274C0013F0080332D12D2C32D101227C78BD1C20
:10275C00002E5DD0102E09D1302C07D12B7803F030
:10276C00DF03582B4FD110266C780235002A14BF8A
:10277C004FF000416FF000410027B1FBF6FC3846EA
:10278C0006FB1C1EA4F13003092B17D81C46A642CD
:10279C0023DD7B1C07D084451CD301D1A64519DB56
:1027AC00012700FB064015F8014BEBE72F46BFE76E
:1027BC002B2C04BFBD1C7C781A46C9E7A4F141033D
:1027CC00192B01D8373CE2E7A4F16103192B04D88B
:1027DC00573CDCE74FF0FF37E5E77B1C08D12223A1
:1027EC000846C8F80030BAF1000F07D1BDE8F087F1
:1027FC0002B14042BAF1000FF8D00FB105F1FF3928
:10280C00CAF80090F2E73024002EAFD10826ADE7CD
:10281C00302CA3D00A26A9E737B5064C064D246800
:10282C00246A002C08BF2C460094FFF77AFF03B0F3
:10283C0030BD00BF080000206C0000202DE9F047DF
:10284C008046894692461E460F463D46089815F826
:10285C00014BFFF70DF82044437813F0080330D1F7
:10286C002D2C30D101217C78BD1C002E5CD0102E7B
:10287C0009D1302C07D12B7803F0DF03582B4ED124
:10288C0010266C7802354FF0FF32B2FBF6F20023C3
:10289C0006FB02FC18466FEA0C0CA4F13007092F5A
:1028AC0017D83C46A64223DD002B1EDB82421CD3EC
:1028BC0001D1A44519DB012300FB064015F8014B9F
:1028CC00EBE72F46C1E72B2C04BFBD1C7C781946C7
:1028DC00CBE7A4F14107192F01D8373CE2E7A4F16B
:1028EC006107192F04D8573CDCE74FF0FF33E5E7BD
:1028FC00002B09DA22234FF0FF30C8F80030BAF170
:10290C00000F07D1BDE8F08701B14042BAF1000FCA
:10291C00F8D00BB105F1FF39CAF80090F2E730247A
:10292C00002EB0D10826AEE7302CA4D00A26AAE798
:10293C0037B5064C064D2468246A002C08BF2C467B
:10294C000094FFF77BFF03B030BD00BF08000020F0
:10295C006C0000202DE9F0410C46496B04F1440356
:10296C0099421BD14FF48061FFF768F818B94FF00A
:10297C00FF30BDE8F0814FF48063A36394F84630D8
:10298C00606380F8FF3394F8453000F2FD304370FB
:10299C0094F84430037020600020EAE7A66B7700BF
:1029AC003A4600F04FF805460028E0D000EB060848
:1029BC00014632464046FEF7BDFBC4F80080C4E930
:1029CC000D57E9E749B1FF2A8BBF8A230A700360D0
:1029DC00012088BF4FF0FF30704708467047000059
:1029EC0038B50023064C054608461146236000F016
:1029FC005FF8431C02D1236803B12B6038BD00BFC4
:102A0C009405002038B50023054C05460846236084
:102A1C0000F056F8431C02D1236803B12B6038BD7B
:102A2C009405002010B5C9B202449042034601D16E
:102A3C00002303E01C7801308C42F6D1184610BDFF
:102A4C0070477047F8B5074614460E4621B9BDE8E5
:102A5C00F8401146FEF7F2BF22B9FEF7A3FF254658
:102A6C002846F8BD00F014F8A0420FD22146384693
:102A7C00FEF7E4FF05460028F2D031462246FEF769
:102A8C0059FB31463846FEF78DFFE9E73546E7E757
:102A9C0051F8043C181F002BBCBF0B58C0187047D2
:102AAC005822024B4FF0FF301A60704794050020FB
:102ABC005822024B4FF0FF301A60704794050020EB
:102ACC005822024B00201A60704700BF940500206A
:102ADC005822024B4FF0FF301A60704794050020CB
:102AEC005822024B4FF0FF301A60704794050020BB
:102AFC00044A05491368002B08BF0B4618441060A4
:102B0C00184670479005002098050020F8B500BFC6
:102B1C00F8BC08BC9E467047F8B500BFF8BC08BCB2
:042B2C009E4670470A
:102B3000D7380008DA380008DD3800080528FF3FDC
:102B4000FF3FFF3F0900003020008C018E011E3046
:102B500021008C008E0023008C018E01FF3FFF3F7F
:102B6000FF3FFF3FFF3FFF3FFF3FFF3FFF3FFF3F75
:102B7000FF3FFF3FFF3FFF3FFF3FFF3FFF3FFF3F65
:102B8000FF3FFF3FFF3FFF3FFF3FFF3FFF3FFF3F55
:102B9000FF3FFF3FFF3FFF3FFF3FFF3FFF3FFF3F45
:102F3000FF3FFF3FFF3FFF3FFF3FFF3F0D0A3D3D8C
:102F40003D3D3D3D3D3D3D3D3D3D3D3D3D3D3D3DB1
:102F50003D3D3D3D3D3D3D3D3D3D3D3D3D3D3D3DA1
:102F60003D3D3D3D3D3D3D3D3D3D3D3D3D3D3D3D91
:102F70003D3D3D3D3D0D00202020416E744D696E6C
:102F80006572205049433136463137303420494349
:102F9000535020466C617368657220546F6F6C20CB
:102FA0002853544D333246313033292020200D0030
:102FB0002020204669726D776172653A2076312E45
:102FC000302E30207C2053797374656D20436C6FF4
:102FD000636B3A20256C75204D487A0D0A0020203D
:102FE000204261756420526174653A203131353276
:102FF000303020382D4E2D31202855534152543138
:103000003A205041392054582C2050413130205220
:1030100058292020200D002D2D2D2D2D2D2D2D2D2D
:103020002D2D2D2D2D2D2D2D2D2D2D2D2D2D2D2DD0
:103030002D2D2D2D2D2D2D2D2D2D2D2D2D2D2D2DC0
:103040002D2D2D2D2D2D2D2D2D2D2D2D2D2D0D00FD
:1030500020202050696E20436F6E6E656374696F27
:103060006E7320746F2054617267657420504943F9
:1030700031364631373034202F2048617368626F13
:103080006172643A2020200D002020202020504131
:1030900030202D3E20504943204D434C52202F20BC
:1030A000565050202850696E20342920202020209E
:1030B0002020202020202020202020202020202010
:1030C0000D002020202020504131202D3E2050494D
:1030D000432049435350444154202F20504744201B
:1030E0002850696E203133292020202020202020E4
:1030F0002020202020202020200D00202020202003
:10310000504132202D3E20504943204943535043E3
:103110004C4B202F20504743202850696E203132DD
:103120002920202020202020202020202020202096
:1031300020200D002020202020504133202D3E2033
:10314000504943205644445F454E2028332E335681
:1031500020506F77657220436F6E74726F6C2920F8
:1031600020202020202020202020200D0020202092
:103170002020474E44202D3E205049432056535393
:10318000202850696E203134202F20426F617264F4
:103190002047726F756E6429202020202020202077
:1031A000202020200D002020202020335633202DE9
:1031B0003E2050494320564444202850696E203117
:1031C00029202020202020202020202020202020F6
:1031D000202020202020202020202020200D002022
:1031E00020204F66666C696E65204D6F64653A20DD
:1031F000507265737320504239206B657920746F6B
:10320000206275726E20656D626564646564204637
:103210005720202020200D002020204F6E6C696E4A
:1032200065204D6F64653A2053656E6420274845DC
:103230004C5027206F722075736520686F7374205F
:10324000507974686F6E20746F6F6C202020200D91
:10325000003D3D3D3D3D3D3D3D3D3D3D3D3D3D3DDB
:103260003D3D3D3D3D3D3D3D3D3D3D3D3D3D3D3D8E
:103270003D3D3D3D3D3D3D3D3D3D3D3D3D3D3D3D7E
:103280003D3D3D3D3D3D3D3D0D0A0D000D0A5B4B75
:1032900045595D205374616E64616C6F6E65204F9B
:1032A0006E652D4B6579204F66666C696E652042B0
:1032B00075726E20547269676765726564210D00CE
:1032C0005B535543434553535D2048617368626FB8
:1032D00061726420504943313646313730342046DC
:1032E0006C6173686564202620566572696669653D
:1032F00064203130302525204F4B210D0A005B46DC
:1033000041494C5D204275726E204661696C65646E
:103310002077697468204572726F7220436F64650C
:103320002025642120436865636B20636F6E6E65A2
:103330006374696F6E732E0D0A00504F4E470D0077
:10334000444554454354004944005B4F4B5D205075
:1033500049432044657465637465643A2044657626
:1033600049443D307825303458205265763D3078D8
:10337000253032580D0A002020202020434F4E4691
:103380004947313D3078253034582C20434F4E4644
:103390004947323D3078253034580D0A002020202E
:1033A00020205573657249443D5B30782530345890
:1033B0002C203078253034582C2030782530345863
:1033C0002C203078253034585D0D0A005B45525270
:1033D0005D20504943204E6F7420466F756E642007
:1033E0006F7220496E636F6D70617469626C6521E4
:1033F00020436865636B20776972696E6720616E30
:103400006420706F7765722E20436F64653D25647C
:103410000D0A0045524153450045726173696E675C
:10342000205049433136463137303420466C617381
:1034300068202620436F6E666967206D656D6F7228
:10344000792E2E2E0D005B4F4B5D2042756C6B204C
:10345000457261736520436F6D706C65746564209F
:103460005375636365737366756C6C79210D005BCE
:103470004552525D2042756C6B2045726173652028
:103480004661696C65642120436F64653D25640D68
:103490000A005245414420002568782025687800BC
:1034A0004164647265737320307825303458202865
:1034B000256420776F726473293A0D0A0025303431
:1034C0005820005B4552525D205265616420466C75
:1034D000617368204661696C65642120436F64658F
:1034E0003D25640D0A0043464700434F4E46494779
:1034F000313A203078253034580D0A00434F4E467B
:103500004947323A203078253034580D0A00557337
:10351000657249443A2020253034582025303458EB
:10352000202530345820253034580D0A005B455290
:10353000525D205265616420436F6E666967732037
:103540004661696C6564210D005245534554005B2A
:103550004F4B5D2052656C6561736564204D434C33
:10356000522E20546172676574205049432069735C
:103570002072756E6E696E672E0D004F4E454B457D
:1035800059004255524E005374617274696E67203F
:103590004F6E652D4B6579204F66666C696E6520B0
:1035A0004275726E206F6620533139205049432096
:1035B0004669726D776172652E2E2E0D005B535534
:1035C00043434553535D20533139205049432046EE
:1035D00069726D7761726520466C617368656420FD
:1035E000262056657269666965642031303025256C
:1035F000204F4B210D0A005B4641494C5D20466C33
:10360000617368696E67204661696C656421204555
:1036100072726F7220436F64653D25640D0A004825
:10362000454C50003F000D0A3D3D3D2053544D3365
:103630003246313033205049433136463137303409
:103640002050726F6772616D6D657220434C492026
:103650003D3D3D0D00202050494E47202020202098
:103660002020202020202020202D2054657374202D
:1036700073657269616C206C696E6B0D0020204966
:1036800044202F204445544543542020202020200E
:10369000202D205265616420504943313646313730
:1036A00030342044657669636520494420262043F0
:1036B0006F6E666967730D002020455241534520A7
:1036C0002020202020202020202020202D20427576
:1036D0006C6B2065726173652050494320466C61B4
:1036E0007368202620436F6E6669670D00202052A4
:1036F000454144203C616464723E203C6E3E202083
:10370000202D2052656164206E20776F72647320D3
:1037100066726F6D20466C6173680D002020434611
:103720004720202020202020202020202020202072
:103730002D205265616420436F6E66696775726102
:1037400074696F6E20776F726473202620557365DD
:10375000722049440D0020204F4E454B4559202FE3
:10376000204255524E20202020202D20466C61738F
:103770006820656D6265646465642053313920504A
:103780004943206669726D776172652026207665EF
:10379000726966790D00202052455345542020203F
:1037A000202020202020202020202D2052656C6504
:1037B000617365204D434C5220616E64206C6574CA
:1037C000205049432072756E0D00202048454C5012
:1037D00020202020202020202020202020202D20DC
:1037E00053686F772074686973206D656E750D0A74
:1037F0000D00556E6B6E6F776E20636F6D6D616E31
:10380000643A20272573272E205479706520484577
:103810004C5020666F72206D656E752E0D0A00503B
:10382000494E47000C00002000000000000000008E
:103830000000000000000000000000000000000088
:103840000000000000000000000000000000000078
:103850000000000000000000000000000000000068
:103860000000000000000000000000000000000058
:103870000000000000000000000000000000000048
:1038800000000000000000004300504F5349580062
:103890002E00686C4C00232D302B20006566674598
:1038A00046470030313233343536373839414243B8
:1038B0004445460030313233343536373839616269
:1038C0006364656600412D46612D663839303132BA
:1038D00033343536375D002B2D00303000785800FA
:1038E00000202020202020202020282828282820D0
:1038F00020202020202020202020202020202020C8
:10390000208810101010101010101010101010102F
:10391000100404040404040404040410101010101F
:1039200010104141414141410101010101010101E9
:10393000010101010101010101010101101010103B
:1039400010104242424242420202020202020202BB
:10395000020202020202020202020202101010100F
:103960002000000000000000000000000000000037
:103970000000000000000000000000000000000047
:103980000000000000000000000000000000000037
:103990000000000000000000000000000000000027
:1039A0000000000000000000000000000000000017
:1039B0000000000000000000000000000000000007
:1039C00000000000000000000000000000000000F7
:1039D00000000000000000000000000000000000E7
:0439E00000000000E3
:0439E40031010008A5
:0439E8000D010008C5
:1039EC0000127A0000A24A040C0000200000000023
:1039FC004838000868380008283800080000000023
:103A0C0000000000000000000000000000000000AA
:103A1C00000000000000000000000000000000009A
:103A2C00000000000000000000000000000000008A
:103A3C00000000000000000000000000000000007A
:103A4C000000000000000000000000004300000027
:103A5C00000000000000000000000000000000005A
:103A6C000000000000000000000000004300000007
:103A7C00000000000000000000000000000000003A
:103A8C0000000000000000000000000043000000E7
:103A9C00000000000000000000000000000000001A
:103AAC0000000000000000000000000043000000C7
:103ABC0000000000000000000000000000000000FA
:103ACC0000000000000000000000000043000000A7
:103ADC0000000000000000000000000000000000DA
:103AEC000000000000000000000000004300000087
:103AFC0000000000000000000000000000000000BA
:103B0C000000000000000000000000004300000066
:103B1C000000000000000000000000000000000099
:103B2C00000000000000000000000000D129000887
:103B3C008D19000800000000E038000890380008DB
:103B4C00FD320008FD320008FD320008FD3200088D
:103B5C00FD320008FD320008FD320008FD3200087D
:103B6C00FD320008FFFFFFFFFFFFFFFFFFFFFFFF1E
:103B7C00FFFF0000010041534349490000000000D1
:103B8C000000000000000000000000000000000029
:103B9C0000000000000041534349490000000000B0
:103BAC000000000000000000000000000000000009
:083BBC00000000000000000001
:040000050800015D91
:00000001FF
